:020000040800F2
:100000004006002049010008231F00083F1D00088A
:10001000211F00082D0900086121000800000000D0
:10002000000000000000000000000000271F000882
:100030006709000800000000251F0008AB1F00082A
:100040006301000863010008630100086301000800
:1000500063010008630100086301000863010008F0
:10006000630100086301000863010008310900080A
:1000700063010008630100086301000863010008D0
:1000800063010008630100086301000863010008C0
:1000900063010008630100086301000863010008B0
:1000A00063010008630100086301000863010008A0
:1000B0006301000863010008630100086301000890
:1000C0006301000863010008630100086301000880
:1000D0006301000863010008630100086301000870
:1000E0006301000863010008630100086301000860
:1000F0006301000863010008630100086301000850
:10010000630100086301000863010008630100083F
:10011000630100086301000863010008630100082F
:10012000630100086301000863010008630100081F
:10013000DFF810D000F0C8FA00480047692A00082C
:10014000AFF300804006002006488047064800477D
:10015000FEE7FEE7FEE7FEE7FEE7FEE7FEE7FEE777
:10016000FEE7FEE72920000831010008202A04DB11
:10017000203A21FA02F00021704721FA02F3D04020
:10018000C2F120029140084319467047D2B201E003
:1001900000F8012B491EFBD270470022F6E710B58C
:1001A00013460A4604461946FFF7F0FF204610BDE5
:1001B00080EA010210B502F00043400022D04A005C
:1001C0001FD0010E01EB1261C0F35600C2F35602BC
:1001D00040F4000042F40002A0FB022000047F393A
:1001E000140400D0401C50EA124001D44000491EC3
:1001F000C2B20C0604EBD010401C4008802A02D08A
:1002000003E0002010BD20F00100002900DA0020EA
:10021000184310BD420005D0C0F3C752524291426C
:1002200001DC0020704700EBC1507047962300228C
:10023000114600F063B800F0004230F000400AD0F0
:10024000C10D01F56071C0F3160042EA0151C20808
:1002500040071143704700200146704730B50B46F8
:10026000014600202022012409E021FA02F59D42E6
:1002700005D303FA02F5491B04FA02F52844151EBA
:10028000A2F10102F1DC30BD2DE9F05F054600204E
:1002900092469B4688460646814640241BE02846F7
:1002A000414647462246FFF761FF53465A46C01A69
:1002B000914110D311461846224600F017FA2D1A24
:1002C00067EB01084F4622460120002100F00EFA9C
:1002D00017EB00094E41201EA4F10104DFDC484663
:1002E00031462A464346BDE8F09F0029A8BF704723
:1002F000401C490008BF20F00100704710B4B0FA5C
:1003000080FC00FA0CF050EA010404BF10BC7047F6
:1003100049B1CCF1200421FA04F411FA0CF118BF10
:10032000012121430843A3EB0C01CB1D4FEA0061DF
:100330004FEA102042BF002010BC704700EBC350B2
:1003400010440029A4BF10BC7047401C490008BFDE
:1003500020F0010010BC70472DE9FE4F804681EA75
:100360000300C00F0C46009021F0004123F000452F
:10037000B8EB0200A94105D24046214690461C46F2
:100380000B46024623F00040104347D0270DC7F329
:100390000A00C3F30A510290401A019040286BDA18
:1003A000C3F3130040F4801B0098924620B1002351
:1003B000D2EB030A63EB0B0B01985946C0F14002E4
:1003C000504600F093F906460D4650465946019AAC
:1003D00000F09BF910EB08006141002487EA1152FC
:1003E00084EAE7731A4340D0009A62B3019A012A63
:1003F0004FEA075215DC001B61EB02014FF000428F
:1004000002EA0752CDE90042001C41F58011324654
:100410002B4600F09BF903B0BDE8F08F4046214623
:10042000F9E7001B61EB0201001C41F58013001885
:100430005B412018A2F5001747EB030140EAD57095
:10044000B6196D4111E06D084FEA360645EAC075F0
:100450004FEA0752001B61EB0201001C41F58011BD
:1004600049084FEA30000019514132462B4603B08B
:10047000BDE8F04F00F05BB9009801224000002376
:10048000D0EB020263EBE073009821464FEAE07480
:10049000B8EB000061EB0401E9E783F000435BE7A0
:1004A00081F0004158E72DE9FE4F81EA030404F092
:1004B000004421F0004100944FF0000B23F0004372
:1004C00050EA01045ED052EA03045BD0C3F30A543D
:1004D000C1F30A552C44A4F2F3340194A0FB025456
:1004E000C1F3130141F48011C3F3130343F48013E8
:1004F00001FB024400FB034E840A970A44EA81543C
:1005000047EA8357A4FB076802958D0A05FB078518
:100510004FEA932C04FB0C542705029D4FEA065822
:1005200047EA1637B5EB08056EEB070C870E920EFF
:1005300047EA811742EA8312A7FB0201B6EB0B01DF
:1005400064EB00042B0D43EA0C335E1844EB1C50A3
:10055000DA465146E7FB0201C5F313044FEA0B33B9
:1005600043EA14534FEA0432019C43EA0603A4F120
:100570000C040294009CCDE900B400F0E7F803B04D
:10058000BDE8F08F00200146F9E72DE9F04D81EA42
:10059000030404F0004B21F0004514464FF0000A1C
:1005A00023F0004150EA050220D054EA01021DD098
:1005B000C5F30A570246C5F31303C1F31300C1F391
:1005C0000A5640F4801543F48013A7EB0608101B6D
:1005D000D64608F2FD3873EB050002D308F1010896
:1005E00001E092185B41B8F1000F03DA00200146E8
:1005F000BDE8F08D00204FF48011064684460EE0E1
:10060000171B73EB050705D3121B63EB05030643AA
:100610004CEA010C49084FEA300092185B4150EA5D
:100620000107EDD152EA030012D082EA040083EA06
:100630000501084305D0101BAB4106D2012200235F
:1006400006E000224FF0004302E06FF00102531079
:100650001AEB06004CEB085110EB0A0041EB0B01C2
:10066000BDE8F04D00F063B8C1F30A52C1F31301C5
:1006700040F2FF3341F480119A4202DA0020014631
:10068000704740F233439A42A2F2334202DC5242B4
:10069000FFF76CBD00F02AB830B5041E71F10004FC
:1006A00004DB4FF00044404264EB0101141E73F17F
:1006B000000405DB1C464FF00043524263EB040389
:1006C000994208BF904230BD064C074D06E0E068F5
:1006D00040F0010394E8070098471034AC42F6D389
:1006E000FFF72AFDDC2B0008FC2B0008202A04DB86
:1006F000203A00FA02F1002070479140C2F1200335
:1007000020FA03F3194390407047202A06DBCB17E9
:10071000203A41FA02F043EAE07306E041FA02F3BC
:10072000D040C2F12002914008431946704710B5ED
:10073000141E73F1000408DA401C41F10001921804
:100740005B411A4301D120F0010010BD2DE9F04DAD
:1007500092469B4611B1B1FA81F202E0B0FA80F202
:1007600020329046FFF7C2FF04460F4640EA0A00D7
:1007700041EA0B0153465A46084313D0114653EA47
:10078000010019D0C8F140025046FFF7EFFC0546C2
:100790000E46504659464246FFF7A8FF084305D08B
:1007A000012004E020463946BDE8F08D00200543D5
:1007B00046EAE0762C4337430A986305E40AA0EB47
:1007C00008000022FD0A44EA47540A3002D50020FE
:1007D0000146E9E7010510196941DDE908450019FD
:1007E0006941BDE8F04DA2E770B504460068816834
:1007F000C943C90717D1816821F00101816000F068
:100800004BFD05460AE000BF00F046FD401B0228F4
:1008100004D920688068C043C00706D0206880687B
:10082000C043C007F0D0002070BDA06A40F01000A7
:10083000A062E06A40F00100E062012070BD10B5E6
:100840000146406A826A12F0500F05D0006A026BBE
:10085000BDE8104008461047816A41F4007181628A
:1008600001688968C1F3424107290CD1017B51B964
:10087000816A21F480718162816AC90403D4816A2A
:1008800041F00101816200F0EFF810BD10B5406A3F
:10089000816A41F040018162C16A41F00401C16294
:1008A00000F0E4F810BD10B5406A00F0DEF810BDAD
:1008B000F8B500260446009600688168C943C90758
:1008C0002DD0816841F00101816016481649006809
:1008D000B0FBF1F000E0401E00900028FBD100F0DA
:1008E000DBFC054616E000BF00F0D6FC401B0228EA
:1008F00010D920688068C043C0070BD0A06A40F0C0
:100900001000A062E06A40F00100E06284F8246018
:100910000120F8BD20688068C043C007E4D10020F2
:10092000F8BD00001400002040420F00FEE7000068
:10093000014800F0FBB900001401002030B590F828
:1009400040500124AC40C56B6C6004686360436830
:10095000102B036803D099600068C26030BD9A60B4
:100960000068C16030BD704772B6FEE7F8B500247C
:10097000009490F824202546012A12D0012280F804
:1009800024204A681F23072A0DD20668776B521E5F
:1009900002EB820293409F430B6893401F437763AF
:1009A00019E00220F8BD06680D2A0AD2376BD21F63
:1009B00002EB820293409F430B6893401F433763CF
:1009C00009E0F76A0D3A02EB820293409F430B68FD
:1009D00093401F43F7620A68072306680A2A0AD36E
:1009E000F7680A3A02EB420293409F438B689340B8
:1009F0001F43F76008E0376902EB420293409F43D0
:100A00008B6893401F4337610A68102A01D0112A6E
:100A100020D1124B02689A4217D193681B0219D455
:100A2000936843F4000393600968102912D10C49BC
:100A30000C4A0968B1FBF2F101EB8101490000E0C9
:100A4000491E00910029FBD104E0816A41F0200198
:100A50008162012480F824502046F8BD0024014022
:100A60001400002040420F0070477047704700009C
:100A70002DE9F04104004FF000057FD0A06A002668
:100A800028B9E66284F82460204600F081F8204608
:100A9000FFF7AAFEA16AC90600D420B1A06A40F0FF
:100AA0001000A0626AE0A16A21F4885141F00201BD
:100AB000A162334923688B42E16904D1B1F5402F2B
:100AC00001D14FF40021277B4FF4807C41EA47029B
:100AD00061680A43A168614508D0012906D0002158
:100AE00094F814E0BEF1010F02D00AE06146F7E786
:100AF000C7B1A76A47F02007A762E76A47F0010776
:100B0000E7625F6827F469470F435F60236899686D
:100B10001C4F394011439960A16861450BD00129F0
:100B200009D00CE0DFF860E0A7690EEB47370F4310
:100B300047F40061E5E7218A0D05A5F580152168D8
:100B4000CB6A23F470032B43CB62216889680F4B77
:100B50001940914208D1E662A16A21F0020141F0F8
:100B60000101A162BDE8F081A06A20F0020040F01E
:100B70001000A062E06A40F00100E0620120F1E7AD
:100B8000003C0140FDF7E1FF00E0FFFFFE0E1FFF0C
:100B900070B586B00026054600960196029603962B
:100BA00000681A4988422ED11949886940F40070BA
:100BB0008861886900F400700490886940F0100032
:100BC00088618869694600F0100004900320009055
:100BD0000190104800F056FA104C0F48C4E9000686
:100BE0008020C4E902604000206180006061202014
:100BF000A0610002E061204600F0BCF908B1FFF7F7
:100C0000B3FE2C62656206B070BD00000024014096
:100C100000100240001001400800024014010020B2
:100C20002DE9F047894604463B4900683B4F0E1DBD
:100C30009046884201D0B84207D1306810F4702F36
:100C400003D001252846BDE8F08794F82400012848
:100C50000CD0012084F824002046FFF729FE05006F
:100C60004FF0000004D084F82400EBE70220EAE70C
:100C7000A16A40F60162914341F48071A16221684A
:100C8000B94218D1326812F4702F14D0A16A41F41D
:100C90008011A1623168490505D5A16A21F400518E
:100CA00041F48051A162A16AC9040AD5E16A21F028
:100CB0000601E16206E0A26A22F48012A26249689B
:100CC000E9E7E06284F82400216A15488862216A15
:100CD0001448C862216A1448086321686FF0020052
:100CE00008602068816841F4807181602168434612
:100CF0004A464C31206A00F07BF920688168C1F3D4
:100D000042410729816803D041F48011816099E74D
:100D100041F4A001FAE7000000240140002801404E
:100D20003F080008A70800088D0800082DE9F05FBB
:100D3000C16B0A6801680B68046C4FF0040808FA7C
:100D400004F8844D844E854FDFF814C2DFF8149206
:100D5000DFF814A2DFF814B2DFF814E218EA020F89
:100D600065D05FEA437862D50A68920603D40A68C0
:100D700022F004020A60DFF8F0814FF4806201681B
:100D800008F1140813011402414524D9A9420DD0D9
:100D9000B1420FD0B9421AD0614515D0494515D09E
:100DA000514501D1120312E0594501D104220EE050
:100DB000714501D140220AE06D4D1435A94206D09B
:100DC0006B4A2832914201D11A4600E02246674917
:100DD000091F0A6029E0A94213D0B14215D0B942D7
:100DE00020D061451BD049451BD0514502D14FF45D
:100DF000800217E0414502D14FF0806212E0594570
:100E000001D104220EE0714501D140220AE0584D83
:100E10001435A94206D0564A2832914201D11A46C9
:100E200000E022464B4908394A60C16A71E04FF040
:100E3000020808FA04F818EA020F70D05FEA837813
:100E40006DD50A68920606D40A6822F00A020A6082
:100E5000012180F82110DFF810814FF40072016841
:100E600008F1140813011402414524D9A9420DD0F8
:100E7000B1420FD0B9421AD0614515D0494515D0BD
:100E8000514501D1120312E0594501D102220EE071
:100E9000714501D120220AE0354D1435A94206D012
:100EA000334A2832914201D11A4600E022462F49A6
:100EB000091F0A6029E0A94213D0B14215D0B942F6
:100EC00020D061451BD049451BD0514502D14FF47C
:100ED000001217E0414502D14FF0007212E059456F
:100EE00001D102220EE0714501D120220AE0204DFD
:100EF0001435A94206D01E4A2832914201D11A4621
:100F000000E02246134908394A60002180F8201089
:100F1000816A00291CD0BDE8F05F0847FFE708257B
:100F2000A540154214D01A0712D50A6822F00E0205
:100F30000A6090F84020C36B012101FA02F25A6066
:100F4000816380F82110002180F82010016BE0E718
:100F5000BDE8F09F080002401C0002403000024043
:100F600044000240580002406C0002400804024065
:100F70001C04024030B560B11A4B026814219A4239
:100F800009D2194B1344B3FBF1F1890001641749ED
:100F90000AE0012030BD134B5B421344B3FBF1F177
:100FA000890001640F490839C163022180F82110CA
:100FB000136843F6F0718B43F0E901142143D0E943
:100FC00002452C4321430469214344692143846938
:100FD00021431943116000214163012242770177C7
:100FE000084630BD08040240F8FFFDBF0000024083
:100FF00070B5044690F82000002501280CD001208F
:1010000084F8200094F821600020012E06D084F896
:1010100020000225284670BD022070BD022684F8FB
:101020002160A0632068066826F00106066020465D
:10103000FFF784FCE06A00282068016802D041F0D4
:101040000E0106E021F0040101602068016841F012
:101050000A0101602068016841F001010160D9E7DF
:1010600070B5044600F018F90546601C02D004482B
:101070000078044400F010F9401BA042FAD370BD80
:10108000080000202DE9F84FDFF8C8910024A9F1ED
:10109000040B23460F2709F1040AABF1040ED1E03B
:1010A0000125A54006EA0502AA4276D1DFF8A8C1CB
:1010B0004E68A6EB0C0866452BD00DDC032E34D011
:1010C00005DC36B3012E19D0022E2FD11BE0112ED4
:1010D00016D0122E2AD119E0B8F5881F19D006DCD7
:1010E000B8F5803F15D0B8F5801F1FD111E0B8F5D5
:1010F000001F0ED0B8F5041F18D10AE0CB6815E028
:10110000CB681B1D12E0CB6808330FE0CB680C33B3
:101110000CE08B682BB1012B4FF0080303D0456125
:1011200004E0042302E0056100E00023FF2A01D867
:10113000064601E000F104064FEA840501D9A5F155
:101140002005D6F8008007FA05FC28EA0C0803FA07
:1011500005F548EA0508C6F800804D68ED0070D531
:101160003E4DAE6946F00106AE61AD6924F003065E
:1011700005F0010500953A4D06EB050CDCF808502A
:10118000A607360F07FA06F825EA0805DFF8D48027
:10119000404503D14FF0000825E052E0DFF8C88059
:1011A000404502D14FF001081DE0DFF8C080404506
:1011B00002D14FF0020816E0DFF8B480404502D1BA
:1011C0004FF003080FE0DFF8AC80404502D14FF04C
:1011D000040808E0DFF8A080404502D14FF0050880
:1011E00001E04FF0060808FA06F848EA0508CCF8CE
:1011F00008804D68D9F80060ED024D4601D51643D0
:1012000000E096432E604D68DAF80060AD02554666
:1012100001D5164300E096432E604D68DBF8006070
:10122000AD035D4601D5164300E096432E604D6840
:10123000DEF80060ED03754601D5164300E09643E5
:101240002E60641C0A681646E2407FF429AFBDE8B0
:10125000F88F000008040140000011100010024047
:101260000000014000080140000C01400010014056
:101270000014014000180140001C0140C26821EA2E
:1012800002030A4043EA0241016170470AB1016169
:1012900070470904FBE700000148806870470000C0
:1012A0000800002070B5040025D094F83D0000250A
:1012B00020B984F83C50204600F0B8F8242084F887
:1012C0003D002068016821F001010160206801688B
:1012D00041F4004101602068016821F4004101608F
:1012E00000F06EFA4D4A6168914201D84C4900E025
:1012F0004C49884201D2012070BD4B492368B0FBA4
:10130000F1F15E6826F03F060E435E60636893422B
:1013100006D94FF4967359434FF47A73B1FBF3F146
:101320002368491C1E6A26F03F0631431962616832
:10133000914210D84900401EB0FBF1F2521CC2F39A
:101340000B02042A01D2042022E0B0FBF1F0401C81
:10135000C0F30B001CE0A268F2B301EBC10303EB86
:101360000116431EB3FBF6F35B1C43F480431B05DD
:1013700049D092B301EBC10202EB0111401EB0FB58
:10138000F1F0401CC0F30B0040F4804040F40040FA
:101390002168CA694CF6FF739A431043C861D4E9C7
:1013A000071001432068026822F0C0021143016067
:1013B000D4E9030101432068826848F2FF339A436D
:1013C00011438160D4E9050108432168CA6822F00D
:1013D000FF021043C86001E00EE016E020680168DB
:1013E00041F0010101602564202084F83D0025635F
:1013F00084F83E50002070BD01EB4106431EB3FB54
:10140000F6F35B1CB3E70120C2E701EB4101401E8C
:10141000B0FBF1F0401CC0F30B00B7E7A086010061
:1014200080841E0000093D0040420F0010B586B0C8
:101430000021009101910291039100680F498842B7
:101440001AD10F4CA06940F00800A061A06969465C
:1014500000F008000490C0200090122001900320AA
:1014600003900848FFF70EFEE06940F40010E061C9
:10147000E06900F40010049006B010BD0054004074
:1014800000100240000C01400248816802781144BB
:101490008160704708000020074810B5016841F0DE
:1014A00010010160032000F06DF80F2000F006F835
:1014B00000F024F8002010BD0020024070B50D4D52
:1014C00004464FF47A712878B1FBF0F00A490968B4
:1014D000B1FBF0F000F04AFB48B9102C07D2002213
:1014E0002146501E00F02EF800206C6070BD0120D7
:1014F00070BD00000800002014000020094808B555
:10150000816941F001018161816901F0010100916E
:10151000C16941F08051C161C06900F08050009004
:1015200008BD000000100240002809DB00F01F0287
:10153000012191404009800000F1E020C0F8001135
:1015400070470000F0B40E4B1B680C46C3F3022337
:10155000C3F10705042D00D90425191D072901D25F
:10156000002300E0DB1E012606FA05F1491E21409A
:1015700099409E40761E16403143F0BC00F002BEFA
:101580000CED00E0064900F0070208684FF6FF0383
:10159000184040EA0220034A1043086070470000E8
:1015A0000CED00E00000FA052DE9F843054600784F
:1015B000354CC00754D0E0690026C00008D4E0696B
:1015C00040F08050E061E069012600F0805000901A
:1015D0002E480168C90512D40168804641F4807123
:1015E0000160FFF759FE074605E000BFFFF754FE14
:1015F000C01B642823D8D8F80000C005F6D5206A9F
:1016000010F4407021D0A98801F4407181421CD0AF
:10161000206A1F49012220F440700A6000220A60FB
:101620002062C00711D0FFF737FE074641F2883825
:1016300008E000BFFFF730FEC11B414502D903207F
:10164000BDE8F883206A8007F4D5206A696820F431
:101650004070084320621EB1E06920F08050E061D4
:101660002878800705D56068A96820F440400843C1
:1016700060602878C00605D56068696920F480003C
:10168000084360600020DBE700100240007000406B
:10169000400442422DE9F0470F46050061D0434E19
:1016A000306800F00700B84209D2306820F0070027
:1016B00038433060306800F00700B84251D12868E4
:1016C0003B4C810712D5400703D5606840F4E060C9
:1016D00060602878000703D5606840F4605060605F
:1016E0006068A96820F0F000084360602878C007AF
:1016F00028D06868012810D02168022810D08907F6
:1017000000292EDA616821F0030101436160FFF7CF
:10171000C3FD804641F288390DE021688903EFE777
:101720008901EDE7FFF7B8FDA0EB0801494502D9B3
:101730000320BDE8F0876068696800F00C00B0EB3A
:10174000810FEFD1306800F00700B8420BD9306844
:1017500020F0070038433060306800F00700B842DE
:1017600001D00120E5E72878400705D56068E968E1
:1017700020F4E060084360602878000706D56068C0
:10178000296920F4605040EAC100606000F038F838
:101790006168084AC1F30311515CC84006490860FA
:1017A00006480068FFF78AFE0020C2E700200240DA
:1017B00000100240C22B0008140000200C00002082
:1017C0000448054900684968044AC1F30221515C94
:1017D000C84070471400002000100240D22B0008BF
:1017E0000448054900684968044AC1F3C221515CB4
:1017F000C84070471400002000100240D22B00089F
:101800000E4A51680E4801F00C03042B11D0082B2E
:101810000FD10C48C1F38343C903C05C0AD551689A
:10182000084AC1F34041921E515C054A5043B0FB47
:10183000F1F070470449484370470000001002402F
:1018400000127A00B22B000800093D002DE9F84F84
:10185000040070D02078C04DC00749D06868C0F33C
:101860008100012807D06868C0F38100022809D1EF
:101870006868C00306D52868800339D560680028E9
:10188000E7D035E06068B0F5803F0BD010B1B0F51F
:10189000A02F11D0286820F480302860286820F418
:1018A000802002E0286840F480302860606890B1B1
:1018B000FFF7F2FC06460AE0286840F48020286022
:1018C000F0E700BFFFF7E8FC801B642873D82868A6
:1018D0008003F7D50CE0FFF7DFFC064605E000BF0C
:1018E000FFF7DAFC801B6428F0D828688003F7D45F
:1018F00020789A4E80074FF001094FF0000839D543
:10190000686810F00C0F07D06868C0F381000228E7
:1019100009D16868C00306D42868800714D52069F7
:10192000012808D110E02069B0B1C6F80090FFF797
:10193000B3FC074605E00AE1FFF7AEFCC01B022836
:10194000C4D828688007F7D52868616920F0F800B6
:1019500040EAC10028600DE0C6F80080FFF79CFC5B
:10196000074604E0FFF798FCC01B022823D828682C
:101970008007F7D4207800072CD57948A169D9B120
:10198000C0F80090FFF788FC074604E0FFF784FCEE
:10199000C01B02280FD8686A8007F7D571484FF43A
:1019A000FA510068B0FBF1F0009000BF0098411EB2
:1019B0000091FAD20EE080E0C0F80080FFF76CFCE6
:1019C000074604E0FFF768FCC01B022875D8686A68
:1019D0008007F7D42078400760D5E8690027C00069
:1019E00008D4E86940F08050E861E869012700F018
:1019F000805000905C480168C90513D40168834693
:101A000041F480710160FFF747FC824606E000BFA9
:101A1000FFF742FCA0EB0A0064284ED8DBF8000078
:101A2000C005F5D5E06801280AD008B1052813D013
:101A3000286A20F001002862286A20F0040002E0F1
:101A4000286A40F001002862E06841F2883B98B1C2
:101A5000FFF722FC82460BE0286A40F0040028626F
:101A6000EEE700BFFFF718FCA0EB0A0159455AD872
:101A7000286A8007F6D50CE0FFF70EFC824605E0E9
:101A8000FFF70AFCA0EB0A0159454CD8286A8007E9
:101A9000F6D41FB1E86920F08050E861E06988B3AE
:101AA0006968C1F38101022944D00228C6F8608028
:101AB00004D0FFF7F1FB044638E034E0FFF7ECFB1D
:101AC000074604E0FFF7E8FBC01B02282BD8286874
:101AD0008001F7D4206AB0F5803F05D16868A1681D
:101AE00020F4003008436860D4E9080108436968BD
:101AF00021F4741108436860C6F86090FFF7CCFBCE
:101B0000044606E025E000BFFFF7C6FB001B0228E5
:101B100009D828688001F7D51BE000BFFFF7BCFBA0
:101B2000001B022802D90320BDE8F88F2868800135
:101B3000F4D40EE00128F7D06868226A00F48031FE
:101B4000914204D1616A00F47010884201D00120F2
:101B5000EAE70020E8E700000010024000004242EF
:101B600080044242140000200070004010B5401E66
:101B7000B0F1807F01D3012010BD4FF0E0246061FF
:101B80000F21601700F0FEFA0020A06107202061FD
:101B9000002010BD70B5040004D094F84100002569
:101BA00010B106E0012070BD84F84050204600F0DE
:101BB00023F8242084F841002068C16821F40051F2
:101BC000C160204600F034FA2068016921F4904198
:101BD00001612068416921F02A0141612068C168E2
:101BE00041F40051C1606564202084F8410084F80C
:101BF00042006563002070BD70B586B0002400947B
:101C0000019402940394234E036823490220032283
:101C1000224DB34219D18B6943F480438B618B69A8
:101C200003F4804304938B6943F004038B61896957
:101C3000039201F0040104910102CDE9001069460C
:101C40002846FFF71FFA28151BE0154EB3421FD197
:101C5000CB6943F40033CB61CB6903F400330493C5
:101C60008B6943F004038B618969039201F00401DD
:101C700004910421CDE9001069462846FFF702FAD5
:101C80000820CDE90004694628460294FFF7FAF9D6
:101C900006B070BD0038014000100240000801404D
:101CA000004400402DE9F843044690F841001F46E7
:101CB00016460D46202802D00220BDE8F8837DB1EB
:101CC00076B100206064212084F84100FFF7E4FA37
:101CD000A6848046E684A068B0F5805F02D003E069
:101CE0000120EAE7206910B12E4600250EE000260B
:101CF0000CE08021204600F0F7F9A0B9AEB116F84B
:101D0000010B21684860E08C401EE084E08C434673
:101D10004FF0000200970028EBD14FF04001204621
:101D200000F0E2F930B10320C7E735F8020BC0F349
:101D30000800E6E7202084F841000020BDE7FEE728
:101D4000FEB50024174800940194154902940160DF
:101D500089158160012505730475022606614FF41B
:101D600060214460C161FEF783FE08B1FEF7FCFD0F
:101D70000A20CDE90005694602940A48FEF7F6FDFF
:101D800008B1FEF7F1FD0B20CDE9000669460548D4
:101D9000FEF7ECFD002801D0FEF7E6FDFEBD0000D9
:101DA00000240140E4000020094808B5416941F0E1
:101DB000010141614069002200F0010000901146DC
:101DC0000B20FFF7BFFBBDE808400B20FFF7ACBBC3
:101DD000001002402DE9F04385B000242148009412
:101DE000019402940394816941F010018161816939
:101DF00001F010010491816941F004018161816960
:101E000001F004010491816941F008018161806958
:101E1000DFF8548000F008000490002203214046BF
:101E2000FFF734FADFF844904FF470670022394628
:101E30004846FFF72BFA032001250226CDE90005CD
:101E4000CDE9024669464046FFF71CF90097039624
:101E5000CDE9015469464846FFF714F905B0BDE8DD
:101E6000F083000000100240000C0140001001400F
:101E70000D4810B50B4901600C49416000214FF439
:101E800080428160C0E9031241618161C1610162E8
:101E9000FFF708FA002803D0BDE81040FEF764BD44
:101EA00010BD00000054004058010020A086010031
:101EB0000C4810B50A4901604FF4E131416000213E
:101EC00081600C22C160C0E904128161C161FFF729
:101ED00061FE002803D0BDE81040FEF745BD10BDEF
:101EE00000380140AC0100200C4810B50A490160DF
:101EF0004FF416514160002181600C22C160C0E99D
:101F000004128161C161FFF745FE002803D0BDE8DE
:101F10001040FEF729BD10BD00440040F401002030
:101F2000FEE7FEE77047704701B54FF47A73012270
:101F300069460248FFF7B6FE08BD0000F401002024
:101F400010B5044603E000BFFFF7EEFF641C2078E5
:101F50000028F9D110BD70B5054616460C46EE2096
:101F6000FFF7E2FFB120FFF7DFFF1020FFF7DCFFF4
:101F7000280AFFF7D9FFE8B2FFF7D6FF200AFFF7DC
:101F8000D3FFE0B2FFF7D0FF3046FFF7D9FFFF20C5
:101F9000FFF7CAFFFC20FFF7C7FFFF20FFF7C4FFD2
:101FA000BDE87040FF20FFF7BFBFFFF76DBA30B547
:101FB00095B028216846FEF7F0F814210AA8FEF72C
:101FC000ECF818210FA8FEF7E8F801210804CDE984
:101FD00000100025029502240491CDE907404FF43A
:101FE000E01009906846FFF731FC08B172B6FEE7D1
:101FF0000AA90F2081E831004FF48060CDE90D057A
:1020000002210AA8FFF746FB08B172B6FEE74FF4BB
:10201000004011900F940FA8FFF7C6FA002801D0D6
:1020200072B6FEE715B030BD7047FFF721BF000064
:1020300070B5044600680169E26821F4405111431B
:1020400001612169A0680843616908432168CA6881
:1020500041F20C639A430243CA6020684169A26955
:1020600021F44071114341611E492068884202D128
:10207000FFF7B6FB01E0FFF7A3FB00EBC00101EBAC
:102080000012606864218000B2FBF0F3B3FBF1F34F
:102090006FF018067343B2FBF0F5B2FBF0F605EBF8
:1020A0008305322303EB0515B5FBF1F5B6FBF1F61D
:1020B00005F0F00505EB0615B2FBF0F6B2FBF0F00B
:1020C000B0FBF1F06FF01802504306EB800003EB19
:1020D0000010B0FBF1F0216800F00F002844886088
:1020E00070BD0000003801402DE9F04198461746C8
:1020F0000E460446069D27E0681C25D02DB1FFF74B
:10210000CBF8A0EB0800A8421ED920680C3050E89C
:10211000001F21F4D07140E80012002AF5D1206898
:10212000143050E8001F21F0010140E80012002A9D
:10213000F5D1202084F8410084F84200002084F882
:1021400040000320BDE8F0812068006836EA000006
:1021500004D00020B842CFD00020F3E70120F9E7F7
:10216000FEE700000FB4054B10B503A9044A02981E
:1021700000F0EAF810BC5DF814FB0000512A0008DA
:10218000180000200907090E002804DB00F1E020F8
:1021900080F80014704700F00F0000F1E02080F894
:1021A000141D704702E008C8121F08C1002AFAD1A6
:1021B00070477047002001E001C1121F002AFBD1C7
:1021C000704700002DE9FF5F82B00021DDE9043097
:1021D000020DDDF840B0034318D044F61050A2F2CF
:1021E000FF3242431514119801281FD0A5EB0B00B4
:1021F000401C5FEA000A4FF000064E4FDFF83891AE
:10220000B046504615D5CAF1000413E011980124D8
:102210004AA3012801D16FEA0B010298119AC0E983
:102220000031C0E9024206B0BDE8F09FCBF10000EA
:10223000DFE704460021404A491842EB0450CDE94B
:10224000001012E0E00707D032463B4640464946C0
:10225000FEF729F98046894632463B461046194624
:10226000FEF721F906460F466410002CEAD1DDE99D
:102270000401DDE90023BAF1000F06DAFEF713F9D5
:1022800042464B46FEF70FF905E0FEF77EF942465F
:102290004B46FEF77AF904460E460022284BFEF71D
:1022A000FBF903D84FF0FF30014607E00022254B31
:1022B00020463146FEF750F8FEF7D6F9102409E023
:1022C000002C0ADB0A220023FDF7DEFF039B3032DD
:1022D0001A55641E50EA0102F2D1641C039AC4F13B
:1022E00011031444119A012A03D0012208430DD18D
:1022F0000AE0084304D000204FF0110B119072E760
:10230000A3EB0B056D1E0DE05B4504DD4FF00002F5
:1023100005F1010504E003DA4FF00002A5F1010523
:10232000002AECD002981199C0E90231C0E90045B9
:1023300079E70000000014400000F03F300000008A
:102340000000F0430000E03F2DE9FF4F95B09A46B2
:10235000884606460025EEE1252877D10024274649
:10236000F94A0121039400E0044316F8013F203BA1
:1023700001FA03F01042F7D130782A2811D06FF01B
:102380002F033078A0F13002092A16D8039A44F0BE
:10239000020402EB820203EB42021044761C03901B
:1023A000EFE758F8042B0392002A03DA504244F472
:1023B0000054039044F00204761C30782E2816D185
:1023C00016F8010F44F004042A280DD06FF02F02F4
:1023D0003078A0F13003092B09D807EB870302EB13
:1023E0004303C718761CF3E758F8047B761C307853
:1023F0006C280FD006DC4C2817D068280DD06A282E
:1024000014D104E0742810D07A280FD10DE044F4E0
:1024100000140AE044F4801401E044F4401472789B
:10242000824202D104F58014761C761C307866282E
:102430000BD013DC582877D009DC002875D045284C
:10244000F6D04628F4D047281AD193E118E0632843
:1024500035D0642879D0652812D18BE1702873D0EB
:1024600008DC6728F1D069286FD06E280DD06F285E
:1024700006D1ACE073282CD0752874D0782853D0BE
:102480005246179990476D1C54E1C4F3025002283C
:1024900009D003280DD0D8F8001004280DD00D6005
:1024A00008F1040846E1D8F80010EA17C1E9005223
:1024B000F6E7D8F800100D80F2E70D70F0E718F895
:1024C000041B8DF8001000208DF80100EB46012060
:1024D00003E058F804BB4FF0FF3061074FF00001F4
:1024E00002D40DE009F101018946B9420FDA8145B4
:1024F000F8DB1BF809100029F4D108E009F101010B
:1025000089468142FADB1BF809100029F6D10398AD
:102510005346A0EB090721463846179A00F080FA87
:10252000284400EB090507E044E008E10DE01BF852
:10253000010B524617999047B9F10109F7D253465A
:1025400021463846179AF2E039E00A21C4F30252D4
:102550004FF0000B0091022A06D058F8040BC11767
:10256000032A09D00AE023E008F1070020F007025F
:10257000F2E80201904605E000B2C117042A01D139
:1025800040B2C117002906DA0A460021404261EB39
:1025900002012D2202E0220504D52B228DF8042011
:1025A000012203E0E20701D02022F7E7914657E03D
:1025B0000A2100E010214FF0000B00910BE01021E8
:1025C0004FF0000B44F004040827009103E00820BA
:1025D0004FF0000B0090C4F30252022A05D058F8C5
:1025E000040B0021032A08D008E008F1070020F0BE
:1025F0000702F2E80201904603E080B2042A00D10B
:10260000C0B24FF0000922072AD53278702A07D0CD
:10261000DDF800C08CF0100C5CEA0B0C05D00EE06D
:1026200040228DF80420012208E050EA010306D080
:1026300030238DF804308DF8052002229146009B4E
:1026400083F0080353EA0B030AD150EA010201D1D7
:10265000620705D530228DF804204FF001097F1E56
:102660003278582A04D039A20C920CAA02920BE0BC
:102670003BA2F9E75B46009AFDF706FE0C9B9B5CCC
:10268000029A521E0292137050EA0102F2D102988D
:1026900004A9081A00F1200B600702D524F4803445
:1026A00000E001275F4502DDA7EB0B0000E0002002
:1026B00000EB0B01009003984944401A0390E0039B
:1026C00006D453462146179A039800F0A9F9054409
:1026D000002706E001A85246C05D179990476D1C7F
:1026E0007F1C4F45F6DBE0030CD553462146179A75
:1026F000039800F095F9054404E0302052461799FC
:1027000090476D1C0099481E00900029F5DC08E0F8
:102710000298029952460078491C029117999047F5
:102720006D1CBBF10001ABF1010BF1DC5BE100F0D2
:1027300065F90544761C307800287FF40DAE19B099
:102740002846BDE8F08F00000928010030313233FF
:1027500034353637383961626364656600000000DD
:1027600030313233343536373839414243444546C7
:1027700000000000600700D4062708F1070020F0E1
:102780000700F0E80223804603F0004C5FEA0C00EB
:1027900001D097A009E0200501D596A005E0E0074B
:1027A00001D095A001E0AFF24C001390307823F0F7
:1027B000004365280CD006DC452809D046281DD0EA
:1027C00047287FD13BE0662818D067287AD136E0C9
:1027D0000021112F01DB112000E0781CCDE9000160
:1027E00004A90CA8FFF7EEFCDDE90D010C9A4FF0EF
:1027F000000B07F10109109200914EE04FF00040EC
:102800000097CDE9011004A90CA8FFF7DBFCDDE976
:102810000D020C9B0F994FF0000B91461093009204
:1028200011B9791C00EB0109B7EB090003D4C0F121
:10283000FF3B07F10109A9EB0700019042E0012FDE
:1028400000DA01270021112F01DD112000E03846B8
:10285000CDE9000104A90CA8FFF7B4FCDDE90D01E6
:102860000C9A00914FF0000BB946109221070FD43B
:10287000009A4A4503DA914601E0A9F10109B9F14C
:10288000010F05DD109AA9F10101515C3029F4D046
:10289000B84202DA10F1040F03DA0121CDE9011088
:1028A00010E0002803DC8344A9EB000102E0411C96
:1028B000494500DD8946A0EB0B00401C01904FF01C
:1028C00000400290200705D40198484502DB4FF0F4
:1028D000FF30019000208DF84B0002980DF14B075E
:1028E000B0F1004F25D002200C902B200D900298C3
:1028F00000280CDA404202902D200D9007E00A21BA
:102900000298FDF7ABFC3031029007F8011D0C99DD
:10291000481E0C900029F2DC02980028EFD1791EA5
:102920000D980870307800F0200040F0450007F85E
:10293000020D11A8C01BC01D02901398007800B1B1
:10294000012000EB0901019801EBE07102980144BC
:102950000398401A401E0390E00306D453462146D4
:10296000179A039800F05CF805441398007818B1A2
:102970005246179990476D1CE00323D553462146D4
:10298000179A039800F04CF805441BE0BBF1000FC8
:1029900007DB0098584504DD1098179910F80B00D4
:1029A00001E0179930205246904701980BF1010B36
:1029B000401E05F10105019004D12E2052461799C1
:1029C00090476D1CB9F10001A9F10109DEDC05E0B9
:1029D00017F8010B5246179990476D1C0299481E33
:1029E00002900029F4DC53462146179A03989EE68C
:1029F0002D0000002B000000200000002DE9F04118
:102A0000044600251E461746880404D405E03946CE
:102A10002020B0476D1C641EF9D52846BDE8F08122
:102A20002DE9F041044600251E469046C80301D515
:102A3000302700E02027880404D505E041463846C9
:102A4000B0476D1C641EF9D52846BDE8F081000032
:102A500013B54FF6FF73012269460248FFF722F9CA
:102A600000981CBDAC010020FEF716FDFFF79FFA91
:102A7000FFF7B0F9FFF798F9FFF762F9FFF7F8F9F8
:102A8000FFF716FAFFF730FAFFF7CFFA6422294969
:102A90002948FEF7C5F8DFF8A490264D284C4FF0E2
:102AA000000802214846FEF7E9FB26A0FFF75AFB83
:102AB0002BA201210020FFF74EFA404684F8008047
:102AC000C0B235F81010401CC0B235F81020401CC0
:102AD000C0B220706428F3D36180A28024A0FFF7E5
:102AE00041FB6088FDF7A2FB284E3146FDF760FBF5
:102AF0006FF00B073946FDF78DFBFDF79CFB024697
:102B00000B4623A0FFF72EFBA088FDF78FFB314675
:102B1000FDF74EFB3946FDF77DFBFDF78CFB0246CA
:102B20000B461FA0FFF71EFB4FF47A70FEF798FAD2
:102B3000B7E700001C000020E4000020000C01406A
:102B40000000002077656C636F6D6520746F2061F5
:102B5000206E657720776F726C6421200D0A00006B
:102B600068656C6C6F2C776F726C642100000000DC
:102B70002020646F75626C65206368616E6E656CA1
:102B80002041444320746573740D0A00333353406D
:102B9000504330203D2025312E346620560D0A004A
:102BA000504331203D2025312E346620560D0A0039
:102BB000010202030405060708090A0B0C0D0E0F9B
:102BC00010100000000000000000010203040607CE
:102BD000080900000000010203040000FC2B0008AB
:102BE000000000201C000000A4210008182C000890
:102BF0001C00002024060000B42100080000000092
:102C000000000000010000001000000000000000B3
:082C10000024F40000000000A4
:0400000508000131BD
:00000001FF
