:020000040800F2
:1000000070190020490100089F1F0008CF1A00083E
:100010009D1F00089D0300089D22000800000000AD
:10002000000000000000000000000000A31F000806
:10003000D703000800000000A11F0008E920000805
:100040006301000863010008630100086301000800
:1000500063010008630100086301000863010008F0
:10006000630100086301000863010008A1030008A0
:1000700063010008630100086301000863010008D0
:1000800063010008630100086301000863010008C0
:1000900063010008630100086301000863010008B0
:1000A00063010008630100086301000863010008A0
:1000B0006301000863010008630100086301000890
:1000C0006301000863010008630100086301000880
:1000D0006301000863010008630100086301000870
:1000E0006301000863010008630100086301000860
:1000F0006301000863010008630100086301000850
:10010000630100086301000863010008630100083F
:10011000630100086301000863010008630100082F
:10012000630100086301000863010008630100081F
:10013000DFF810D000F06EF8004800477127000883
:10014000AFF300807019002006488047064800473A
:10015000FEE7FEE7FEE7FEE7FEE7FEE7FEE7FEE777
:10016000FEE7FEE76721000831010008202A04DBD2
:10017000203A21FA02F00021704721FA02F3D04020
:10018000C2F120029140084319467047D2B201E003
:1001900000F8012B491EFBD270470022F6E710B58C
:1001A00013460A4604461946FFF7F0FF204610BDE5
:1001B0002DE9F05F0546002092469B46884606469C
:1001C000814640241BE02846414647462246FFF729
:1001D000CDFF53465A46C01A914110D311461846D6
:1001E000224600F029F82D1A67EB01084F462246F7
:1001F0000120002100F020F817EB00094E41201EDD
:10020000A4F10104DFDC484631462A464346BDE8F6
:10021000F09F0000064C074D06E0E06840F0010347
:1002200094E8070098471034AC42F6D3FFF784FFF8
:10023000F428000814290008202A04DB203A00FAD8
:1002400002F1002070479140C2F1200320FA03F32D
:10025000194390407047000070B5044600688168FB
:10026000C943C90717D1816821F00101816000F0FD
:10027000E7FD05460AE000BF00F0E2FD401B022852
:1002800004D920688068C043C00706D02068806811
:10029000C043C007F0D0002070BDA06A40F010003D
:1002A000A062E06A40F00100E062012070BD10B57C
:1002B0000146406A826A12F0500F05D0006A026B54
:1002C000BDE8104008461047816A41F40071816220
:1002D00001688968C1F3424107290CD1017B51B9FA
:1002E000816A21F480718162816AC90403D4816AC0
:1002F00041F00101816200F08DF910BD10B5406A36
:10030000816A41F040018162C16A41F00401C16229
:1003100000F082F910BD10B5406A00F07CF910BD04
:10032000F8B500260446009600688168C943C907ED
:100330002DD0816841F0010181601648164900689E
:10034000B0FBF1F000E0401E00900028FBD100F06F
:1003500077FD054616E000BF00F072FD401B022845
:1003600010D920688068C043C0070BD0A06A40F055
:100370001000A062E06A40F00100E06284F82460AE
:100380000120F8BD20688068C043C007E4D1002088
:10039000F8BD00001000002040420F00FEE7000002
:1003A000014800F097BA00004808002030B590F8E6
:1003B00040500124AC40C56B6C60046863604368C6
:1003C000102B036803D099600068C26030BD9A604A
:1003D0000068C16030BD704772B6FEE72DE9F0419C
:1003E00007461C4615460E46EE2001F0DBFD552063
:1003F00001F0D8FD380A01F0D5FDF8B201F0D2FDC8
:10040000300A01F0CFFDF0B201F0CCFD280A01F076
:10041000C9FDE8B201F0C6FD200A01F0C3FDE0B25B
:1004200001F0C0FDFF2001F0BDFDFC2001F0BAFD90
:10043000FF2001F0B7FDBDE8F041FF2001F0B2BDA3
:10044000F8B500250446009590F8240001280BD04B
:10045000012084F824002046FFF7FEFE2046FFF727
:100460005FFF060002D050E00220F8BDA06A20F431
:10047000885040F00200A062022000F001FF2549F0
:100480000968B1FBF0F0400000E0401E0090002839
:10049000FBD12068816841F00801816000F0D0FC48
:1004A000074608E000F0CCFCC01B0A2803D92068EE
:1004B0008068000715D4206880680007F2D420689F
:1004C000816841F00401816000F0BAFC074612E047
:1004D00000F0B6FCC01B0A280DD9206880684007D0
:1004E00009D5A06A20F0020040F01000A06284F854
:1004F00024500120F8BD206880684007E8D4A06A35
:1005000020F0020040F00100A06284F82450304640
:10051000F8BD000010000020F8B50024009490F809
:1005200024202546012A12D0012280F824204A687E
:100530001F23072A0DD20668776B521E02EB820238
:1005400093409F430B6893401F43776319E0022059
:10055000F8BD06680D2A0AD2376BD21F02EB820261
:1005600093409F430B6893401F43376309E0F76A4A
:100570000D3A02EB820293409F430B6893401F4366
:10058000F7620A68072306680A2A0AD3F7680A3A54
:1005900002EB420293409F438B6893401F43F760F6
:1005A00008E0376902EB420293409F438B68934017
:1005B0001F4337610A68102A01D0112A20D1124B3B
:1005C00002689A4217D193681B0219D4936843F4C6
:1005D000000393600968102912D10C490C4A09687C
:1005E000B1FBF2F101EB8101490000E0491E0091ED
:1005F0000029FBD104E0816A41F0200181620124DD
:1006000080F824502046F8BD00240140100000204E
:1006100040420F0070477047704700002DE9F041DD
:1006200004004FF000057FD0A06A002628B9E662DA
:1006300084F82460204600F081F82046FFF70CFE85
:10064000A16AC90600D420B1A06A40F01000A062DF
:100650006AE0A16A21F4885141F00201A1623349A4
:1006600023688B42E16904D1B1F5402F01D14FF4E9
:100670000021277B4FF4807C41EA470261680A43EE
:10068000A168614508D0012906D0002194F814E042
:10069000BEF1010F02D00AE06146F7E7C7B1A76AD1
:1006A00047F02007A762E76A47F00107E7625F6843
:1006B00027F469470F435F60236899681C4F3940EE
:1006C00011439960A16861450BD0012909D00CE064
:1006D000DFF860E0A7690EEB47370F4347F400618E
:1006E000E5E7218A0D05A5F580152168CB6A23F47D
:1006F00070032B43CB62216889680F4B19409142EC
:1007000008D1E662A16A21F0020141F00101A16273
:10071000BDE8F081A06A20F0020040F01000A06265
:10072000E06A40F00100E0620120F1E7003C014096
:10073000FDF7E1FF00E0FFFFFE0E1FFF70B586B082
:100740000025064600950195029503950068194914
:1007500088422DD11849886940F400708861886901
:1007600000F400700490886940F010008861886986
:10077000694600F0100004900320009001900F489B
:1007800000F054FA0F4C0E48C4E900058020C4E97B
:100790000250400020618000C4E90505C000E0610E
:1007A000204600F0BBF908B1FFF716FE346266621E
:1007B00006B070BD0024014000100240001001404E
:1007C00008000240480800202DE9F0478946044609
:1007D0003B4900683B4F0E1D9046884201D0B8420D
:1007E00007D1306810F4702F03D001252846BDE8EA
:1007F000F08794F8240001280CD0012084F824000C
:100800002046FFF78DFD05004FF0000004D084F86E
:100810002400EBE70220EAE7A16A40F60162914377
:1008200041F48071A1622168B94218D1326812F492
:10083000702F14D0A16A41F48011A162316849057A
:1008400005D5A16A21F4005141F48051A162A16A49
:10085000C9040AD5E16A21F00601E16206E0A26A54
:1008600022F48012A2624968E9E7E06284F8240079
:10087000216A15488862216A1448C862216A1448AE
:10088000086321686FF0020008602068816841F405
:1008900080718160216843464A464C31206A00F0ED
:1008A0007BF920688168C1F342410729816803D040
:1008B00041F48011816099E741F4A001FAE700005A
:1008C0000024014000280140AF020008170300087F
:1008D000FD0200082DE9F05FC16B0A6801680B6832
:1008E000046C4FF0040808FA04F8844D844E854FD8
:1008F000DFF814C2DFF81492DFF814A2DFF814B2A4
:10090000DFF814E218EA020F65D05FEA437862D597
:100910000A68920603D40A6822F004020A60DFF82B
:10092000F0814FF48062016808F114081301140289
:10093000414524D9A9420DD0B1420FD0B9421AD0B5
:10094000614515D0494515D0514501D1120312E03A
:10095000594501D104220EE0714501D140220AE03F
:100960006D4D1435A94206D06B4A2832914201D10F
:100970001A4600E022466749091F0A6029E0A94299
:1009800013D0B14215D0B94220D061451BD04945A2
:100990001BD0514502D14FF4800217E0414502D1EE
:1009A0004FF0806212E0594501D104220EE07145FA
:1009B00001D140220AE0584D1435A94206D0564ACA
:1009C0002832914201D11A4600E022464B490839AB
:1009D0004A60C16A71E04FF0020808FA04F818EAA8
:1009E000020F70D05FEA83786DD50A68920606D44C
:1009F0000A6822F00A020A60012180F82110DFF85B
:100A000010814FF40072016808F1140813011402F8
:100A1000414524D9A9420DD0B1420FD0B9421AD0D4
:100A2000614515D0494515D0514501D1120312E059
:100A3000594501D102220EE0714501D120220AE080
:100A4000354D1435A94206D0334A2832914201D19E
:100A50001A4600E022462F49091F0A6029E0A942F0
:100A600013D0B14215D0B94220D061451BD04945C1
:100A70001BD0514502D14FF4001217E0414502D17D
:100A80004FF0007212E0594501D102220EE071458B
:100A900001D120220AE0204D1435A94206D01E4A79
:100AA0002832914201D11A4600E022461349083902
:100AB0004A60002180F82010816A00291CD0BDE81E
:100AC000F05F0847FFE70825A540154214D01A0734
:100AD00012D50A6822F00E020A6090F84020C36B1B
:100AE000012101FA02F25A60816380F8211000218D
:100AF00080F82010016BE0E7BDE8F09F080002409D
:100B00001C000240300002404400024058000240F5
:100B10006C000240080402401C04024030B560B181
:100B20001A4B026814219A4209D2194B1344B3FBA1
:100B3000F1F18900016417490AE0012030BD134B2F
:100B40005B421344B3FBF1F1890001640F4908399A
:100B5000C163022180F82110136843F6F0718B43C2
:100B6000F0E901142143D0E902452C4321430469F3
:100B700021434469214384692143194311600021C1
:100B80004163012242770177084630BD08040240E4
:100B9000F8FFFDBF0000024070B5044690F8200049
:100BA000002501280CD0012084F8200094F8216051
:100BB0000020012E06D084F820000225284670BDB2
:100BC000022070BD022684F82160A06320680668B8
:100BD00026F0010606602046FFF7E8FBE06A0028E1
:100BE0002068016802D041F00E0106E021F0040106
:100BF00001602068016841F00A0101602068016815
:100C000041F001010160D9E770B5044600F018F920
:100C10000546601C02D004480078044400F010F936
:100C2000401BA042FAD370BD040000202DE9F84F0C
:100C3000DFF8C8910024A9F1040B23460F2709F11E
:100C4000040AABF1040ED1E00125A54006EA050235
:100C5000AA4276D1DFF8A8C14E68A6EB0C0866451B
:100C60002BD00DDC032E34D005DC36B3012E19D089
:100C7000022E2FD11BE0112E16D0122E2AD119E0F0
:100C8000B8F5881F19D006DCB8F5803F15D0B8F547
:100C9000801F1FD111E0B8F5001F0ED0B8F5041F5A
:100CA00018D10AE0CB6815E0CB681B1D12E0CB68B9
:100CB00008330FE0CB680C330CE08B682BB1012BB1
:100CC0004FF0080303D0456104E0042302E005610E
:100CD00000E00023FF2A01D8064601E000F10406E7
:100CE0004FEA840501D9A5F12005D6F8008007FA5E
:100CF00005FC28EA0C0803FA05F548EA0508C6F8D9
:100D000000804D68ED0070D53E4DAE6946F001069D
:100D1000AE61AD6924F0030605F0010500953A4D7A
:100D200006EB050CDCF80850A607360F07FA06F8A4
:100D300025EA0805DFF8D480404503D14FF00008CC
:100D400025E052E0DFF8C880404502D14FF00108AD
:100D50001DE0DFF8C080404502D14FF0020816E0E8
:100D6000DFF8B480404502D14FF003080FE0DFF810
:100D7000AC80404502D14FF0040808E0DFF8A080C5
:100D8000404502D14FF0050801E04FF0060808FA8F
:100D900006F848EA0508CCF808804D68D9F80060E4
:100DA000ED024D4601D5164300E096432E604D6896
:100DB000DAF80060AD02554601D5164300E09643CF
:100DC0002E604D68DBF80060AD035D4601D516432B
:100DD00000E096432E604D68DEF80060ED03754636
:100DE00001D5164300E096432E60641C0A6816463F
:100DF000E2407FF429AFBDE8F88F0000080401400D
:100E000000001110001002400000014000080140E5
:100E1000000C014000100140001401400018014086
:100E2000001C0140C26821EA02030A4043EA024171
:100E3000016170470AB1016170470904FBE70000D6
:100E4000014880687047000004000020006C704773
:100E500070B5040025D094F83D00002520B984F831
:100E60003C50204600F04EF9242084F83D002068D4
:100E7000016821F0010101602068016841F400412E
:100E800001602068016821F40041016000F060FB0E
:100E90004D4A6168914201D84C4900E04C49884272
:100EA00001D2012070BD4B492368B0FBF1F15E68AF
:100EB00026F03F060E435E606368934206D94FF406
:100EC000967359434FF47A73B1FBF3F12368491CCD
:100ED0001E6A26F03F06314319626168914210D8BC
:100EE0004900401EB0FBF1F2521CC2F30B02042A6F
:100EF00001D2042022E0B0FBF1F0401CC0F30B0053
:100F00001CE0A268F2B301EBC10303EB0116431E20
:100F1000B3FBF6F35B1C43F480431B0549D092B34B
:100F200001EBC10202EB0111401EB0FBF1F0401CCD
:100F3000C0F30B0040F4804040F400402168CA69CF
:100F40004CF6FF739A431043C861D4E9071001437C
:100F50002068026822F0C00211430160D4E9030155
:100F600001432068826848F2FF339A43114381604D
:100F7000D4E9050108432168CA6822F0FF02104342
:100F8000C86001E00EE016E02068016841F0010150
:100F900001602564202084F83D00256384F83E50DC
:100FA000002070BD01EB4106431EB3FBF6F35B1C52
:100FB000B3E70120C2E701EB4101401EB0FBF1F0B5
:100FC000401CC0F30B00B7E7A086010080841E0020
:100FD00000093D0040420F002DE9F84F1F469046A2
:100FE0008A460446DDF82890FFF72AFF054694F864
:100FF0003D0020287FD11923012240492046009539
:1010000000F0F8FD002876D194F83C00012872D059
:10101000012084F83C0020680168C90703D10168F9
:1010200041F0010101602068016821F40061016064
:10103000212084F83D00102084F83E00002626641C
:10104000C4F824806785608D20852D48E0622B469A
:101050004A465146204600F053FD90B92068416948
:101060008069009036E02A464946204600F068FE36
:1010700050B1206C042804D12068016841F400714B
:1010800001600120BDE8F88F606A2168007808617E
:10109000606A401C6062618D491E6185218D491E18
:1010A00089B2218522685369DB435B070BD451B1B8
:1010B00000781061606A401C6062608D401E60852F
:1010C000208D401E20852A464946204600F066FDB8
:1010D0000028CED1208D0028C5D154F83D0B0168E1
:1010E00041F400710160202004F81E09E67766775C
:1010F0000020C7E7FFE70220C4E70000020010005D
:101100000000FFFF10B586B000210091019102910F
:10111000039100680F4988421AD10F4CA06940F032
:101120000800A061A069694600F008000490C02092
:10113000009012200190032003900848FFF776FDED
:10114000E06940F40010E061E06900F400100490F0
:1011500006B010BD0054004000100240000C0140D9
:1011600002488168027811448160704704000020C1
:10117000074810B5016841F010010160032000F03C
:101180006DF80F2000F006F800F024F8002010BDE4
:101190000020024070B50D4D04464FF47A71287856
:1011A000B1FBF0F00A490968B1FBF0F000F0A6FBD2
:1011B00048B9102C07D200222146501E00F02EF80C
:1011C00000206C6070BD012070BD00000400002094
:1011D00010000020094808B5816941F001018161D2
:1011E000816901F001010091C16941F08051C16143
:1011F000C06900F08050009008BD0000001002405F
:10120000002809DB00F01F02012191404009800005
:1012100000F1E020C0F8001170470000F0B40E4B60
:101220001B680C46C3F30223C3F10705042D00D944
:101230000425191D072901D2002300E0DB1E012629
:1012400006FA05F1491E214099409E40761E16403F
:101250003143F0BC01F034B80CED00E0064900F079
:10126000070208684FF6FF03184040EA0220034ACD
:1012700010430860704700000CED00E00000FA0524
:1012800010B501460020284C04292FD00BDC012981
:1012900030D0022929D100F06BF96168C1F38131A6
:1012A000491C49001FE0082920D010291DD1616880
:1012B0002268D20119D51D48C1F38342C903805C5D
:1012C0000AD56168194AC1F34041921E515C184A1F
:1012D000B2FBF1F1484301E0164948436168490215
:1012E00003D440000321B0FBF1F010BDBDE8104075
:1012F00000F04EB9226AC2F30121012903D19207FD
:1013000001D5C80310BD022905D1626A920702D532
:1013100049F6404010BD0329FCD121688903F9D565
:101320004FF2244010BD000000100240CC280008FD
:1013300000127A0000093D002DE9F84305460078C7
:10134000354CC00754D0E0690026C00008D4E069DD
:1013500040F08050E061E069012600F0805000908C
:101360002E480168C90512D40168804641F4807195
:101370000160FFF765FD074605E000BFFFF760FD70
:10138000C01B642823D8D8F80000C005F6D5206A11
:1013900010F4407021D0A98801F4407181421CD022
:1013A000206A1F49012220F440700A6000220A606E
:1013B0002062C00711D0FFF743FD074641F288388D
:1013C00008E000BFFFF73CFDC11B414502D90320E7
:1013D000BDE8F883206A8007F4D5206A696820F4A4
:1013E0004070084320621EB1E06920F08050E06147
:1013F0002878800705D56068A96820F44040084334
:1014000060602878C00605D56068696920F48000AE
:10141000084360600020DBE70010024000700040DD
:10142000400442422DE9F0470F46050061D0434E8B
:10143000306800F00700B84209D2306820F0070099
:1014400038433060306800F00700B84251D1286856
:101450003B4C810712D5400703D5606840F4E0603B
:1014600060602878000703D5606840F460506060D1
:101470006068A96820F0F000084360602878C00721
:1014800028D06868012810D02168022810D0890768
:1014900000292EDA616821F0030101436160FFF742
:1014A000CFFC804641F288390DE021688903EFE7DF
:1014B0008901EDE7FFF7C4FCA0EB0801494502D91B
:1014C0000320BDE8F0876068696800F00C00B0EBAD
:1014D000810FEFD1306800F00700B8420BD93068B7
:1014E00020F0070038433060306800F00700B84251
:1014F00001D00120E5E72878400705D56068E96854
:1015000020F4E060084360602878000706D5606832
:10151000296920F4605040EAC100606000F038F8AA
:101520006168084AC1F30311515CC840064908606C
:1015300006480068FFF72EFE0020C2E700200240A8
:1015400000100240DC2800081000002008000020E5
:101550000448054900684968044AC1F30221515C06
:10156000C84070471000002000100240EC2800081E
:101570000448054900684968044AC1F3C221515C26
:10158000C84070471000002000100240EC280008FE
:101590000E4A51680E4801F00C03042B11D0082BA1
:1015A0000FD10C48C1F38343C903C05C0AD551680D
:1015B000084AC1F34041921E515C054A5043B0FBBA
:1015C000F1F07047044948437047000000100240A2
:1015D00000127A00BA28000800093D002DE9F84FF2
:1015E000040070D02078C04DC00749D06868C0F3AF
:1015F0008100012807D06868C0F38100022809D162
:101600006868C00306D52868800339D5606800285B
:10161000E7D035E06068B0F5803F0BD010B1B0F591
:10162000A02F11D0286820F480302860286820F48A
:10163000802002E0286840F480302860606890B123
:10164000FFF7FEFB06460AE0286840F48020286089
:10165000F0E700BFFFF7F4FB801B642873D828680D
:101660008003F7D50CE0FFF7EBFB064605E000BF73
:10167000FFF7E6FB801B6428F0D828688003F7D4C6
:1016800020789A4E80074FF001094FF0000839D5B5
:10169000686810F00C0F07D06868C0F3810002285A
:1016A00009D16868C00306D42868800714D520696A
:1016B000012808D110E02069B0B1C6F80090FFF70A
:1016C000BFFB074605E00AE1FFF7BAFBC01B022893
:1016D000C4D828688007F7D52868616920F0F80029
:1016E00040EAC10028600DE0C6F80080FFF7A8FBC3
:1016F000074604E0FFF7A4FBC01B022823D8286894
:101700008007F7D4207800072CD57948A169D9B192
:10171000C0F80090FFF794FB074604E0FFF790FB4A
:10172000C01B02280FD8686A8007F7D571484FF4AC
:10173000FA510068B0FBF1F0009000BF0098411E24
:101740000091FAD20EE080E0C0F80080FFF778FB4D
:10175000074604E0FFF774FBC01B022875D8686ACF
:101760008007F7D42078400760D5E8690027C000DB
:1017700008D4E86940F08050E861E869012700F08A
:10178000805000905C480168C90513D40168834605
:1017900041F480710160FFF753FB824606E000BF11
:1017A000FFF74EFBA0EB0A0064284ED8DBF80000E0
:1017B000C005F5D5E06801280AD008B1052813D086
:1017C000286A20F001002862286A20F0040002E064
:1017D000286A40F001002862E06841F2883B98B135
:1017E000FFF72EFB82460BE0286A40F004002862D7
:1017F000EEE700BFFFF724FBA0EB0A0159455AD8DA
:10180000286A8007F6D50CE0FFF71AFB824605E050
:10181000FFF716FBA0EB0A0159454CD8286A800750
:10182000F6D41FB1E86920F08050E861E06988B320
:101830006968C1F38101022944D00228C6F860809A
:1018400004D0FFF7FDFA044638E034E0FFF7F8FA79
:10185000074604E0FFF7F4FAC01B02282BD82868DB
:101860008001F7D4206AB0F5803F05D16868A1688F
:1018700020F4003008436860D4E90801084369682F
:1018800021F4741108436860C6F86090FFF7D8FA35
:10189000044606E025E000BFFFF7D2FA001B02284D
:1018A00009D828688001F7D51BE000BFFFF7C8FA08
:1018B000001B022802D90320BDE8F88F28688001A8
:1018C000F4D40EE00128F7D06868226A00F4803171
:1018D000914204D1616A00F47010884201D0012065
:1018E000EAE70020E8E70000001002400000424262
:1018F00080044242100000200070004010B5401EDD
:10190000B0F1807F01D3012010BD4FF0E024606171
:101910000F21601700F0D4FC0020A0610720206197
:10192000002010BD70B5040004D094F841000025DB
:1019300010B106E0012070BD84F84050204600F050
:1019400023F8242084F841002068C16821F4005164
:10195000C160204600F00AFC2068016921F4904132
:1019600001612068416921F02A0141612068C16854
:1019700041F40051C1606564202084F8410084F87E
:1019800042006563002070BD70B586B000240094ED
:10199000019402940394234E0368234902200322F6
:1019A000224DB34219D18B6943F480438B618B691B
:1019B00003F4804304938B6943F004038B618969CA
:1019C000039201F0040104910102CDE9001069467F
:1019D0002846FFF72BF928151BE0154EB3421FD1FF
:1019E000CB6943F40033CB61CB6903F40033049338
:1019F0008B6943F004038B618969039201F0040150
:101A000004910421CDE9001069462846FFF70EF93C
:101A10000820CDE90004694628460294FFF706F93C
:101A200006B070BD003801400010024000080140BF
:101A3000004400402DE9F843044690F841001F4659
:101A400016460D46202802D00220BDE8F8837DB15D
:101A500076B100206064212084F84100FFF7F0F99E
:101A6000A6848046E684A068B0F5805F02D003E0DB
:101A70000120EAE7206910B12E4600250EE000267D
:101A80000CE08021204600F0CDFBA0B9AEB116F8E5
:101A9000010B21684860E08C401EE084E08C4346E6
:101AA0004FF0000200970028EBD14FF04001204694
:101AB00000F0B8FB30B10320C7E735F8020BC0F3E4
:101AC0000800E6E7202084F841000020BDE7FEE79B
:101AD00001684A69D24352050FD46FF480624A61AB
:101AE000002140F8301F202242738173026942F0C6
:101AF000040202610173012070470020704700005A
:101B0000F8B50446C06A1E460D461746082807D099
:101B1000012805D010F5803F02D0206B122804D197
:101B20002068016841F480710160134600224FF083
:101B300001112046009600F05DF840B12068006871
:101B4000C00502D54FF4007020640320F8BD206961
:101B5000B0F5804F0ED00620216800EAD51040F085
:101B6000F000086133463A460B49204600F08AF8F7
:101B700078B902E005F0FE0000E0E8B221680861F3
:101B8000054933463A46891F204600F07BF8002875
:101B9000DCD00120F8BD00000800010070B5164639
:101BA0000D4604461EE02046FFF792FF08B10120D3
:101BB00070BD681C16D0FFF743F9801BA84200D8FF
:101BC00085B920684069C04340070BD5002044F820
:101BD000300F20216173A073216941F02001216140
:101BE0002073E4E720684069C0434007DBD400204D
:101BF00070BD00002DE9F047984617460D46044693
:101C0000C1F30746DDF820902AE000BFB8F1FF3F9E
:101C100026D0FFF715F9A0EB0901414502D8B8F12C
:101C2000000F1DD12068012E16D0806925EA000022
:101C30000004000C12D00020B84211D1002044F85A
:101C4000300F20216173A073216941F020012161CF
:101C500020730120BDE8F0874069E7E70120EBE74A
:101C60002068012E0AD0806925EA00000004000CDB
:101C700006D00020B842C9D00020EBE74069F3E766
:101C80000120F7E72DE9F047984616460D46044631
:101C90004FF000094FF0200AC1F3074723E0206806
:101CA0004069C043400515D42068016841F40071C3
:101CB000016021686FF480604861C4F8309084F856
:101CC0003DA084F83E90216C41F00401216484F829
:101CD0003C9021E0701C06D0FFF7B2F8A0EB0800A2
:101CE000B04203D816B1012F1FD021E02068012F88
:101CF00015D0806925EA00000004000C18D000BF50
:101D000044F8309F84F80DA084F80E90216941F0CA
:101D10002001216184F80C900120BDE8F087406922
:101D200025EA00000004000CEAD12068406901E0C7
:101D30002068806925EA00000004000CAFD1ECE7C0
:101D400070B516460D4604461EE02046FFF7C0FE5D
:101D500008B1012070BD681C16D0FFF771F8801B18
:101D6000A84200D885B920684069C04300060BD559
:101D7000002044F8300F20216173A073216941F0E5
:101D8000200121612073E4E720684069C043000618
:101D9000DBD4002070BD0000FEB50024184800947C
:101DA000019416490294016089158160012505732B
:101DB0000475022606614FF460214460C161FEF79C
:101DC0002DFC08B1FEF708FB0A20CDE900056946A5
:101DD00002940B48FEF7A0FB08B1FEF7FDFA0B20BA
:101DE000CDE9000669460648FEF796FB08B1FEF706
:101DF000F3FA0348FEF724FBFEBD00000024014077
:101E000018080020094808B5416941F00101416105
:101E10004069002200F00100009011460B20FFF7FE
:101E2000FDF9BDE808400B20FFF7EAB900100240B9
:101E30002DE9F04186B000242848009401940294D2
:101E40000394816941F010018161816901F0100101
:101E50000491816941F004018161816901F004010B
:101E60000491816941F00801816180691C4F00F093
:101E700008000490002223213846FEF7DBFFDFF83C
:101E8000648000224FF470614046FEF7D3FF40F2B9
:101E9000231001250226CDE90005CDE90246694659
:101EA0003846FEF7C3FE4FF4FE50CDE90005CDE9FC
:101EB000024669464046FEF7B9FECDE90054694640
:101EC0000948FEF7B3FE6803CDE9000469464046C1
:101ED000FEF7ACFE06B0BDE8F08100000010024045
:101EE000000C014000100140000801400D4810B5F1
:101EF0000B4901600C49416000214FF48042816030
:101F0000C0E9031241618161C1610162FEF7A0FF76
:101F1000002803D0BDE81040FEF75EBA10BD0000F7
:101F2000005400408C080020A08601000C4810B529
:101F30000A4901604FF4E1314160002181600C22C7
:101F4000C160C0E904128161C161FFF7EBFC0028A8
:101F500003D0BDE81040FEF73FBA10BD0038014085
:101F6000E00800200C4810B50A4901604FF41651F2
:101F70004160002181600C22C160C0E904128161CE
:101F8000C161FFF7CFFC002803D0BDE81040FEF789
:101F900023BA10BD0044004028090020FEE7FEE7F8
:101FA0007047704701B54FF47A73012269460248C1
:101FB000FFF740FD08BD00002809002010B50446C9
:101FC000EE20FFF7EFFF4220FFF7ECFF200AFFF7BC
:101FD000E9FFE0B2FFF7E6FFFF20FFF7E3FFFC2099
:101FE000FFF7E0FFFF20FFF7DDFFBDE81040FF2017
:101FF000FFF7D8BF10B50446EE20FFF7D3FF41200E
:10200000FFF7D0FF200AFFF7CDFFE0B2FFF7CAFFCE
:10201000FF20FFF7C7FFFC20FFF7C4FFFF20FFF7FB
:10202000C1FFBDE81040FF20FFF7BCBF2DE9F04124
:1020300000EB80004003212490FBF4F0069DA0F10A
:1020400064061F782C78643081420BDDA74209D9E1
:102050001078401E187028781178084440081070D5
:102060000CA00CE0B1420EDAA7420CD91078401C4B
:1020700028701878117808444008107008A0BDE84E
:10208000F04100F00DB9147007A000F009F900202C
:10209000BDE8F081746F6F20686967680000000018
:1020A000746F6F206C6F77006A75737400000000A6
:1020B0007CB50021019102248DF8050001ADFF26B9
:1020C00006E00848FEF7C2FE042801D0FEF784F9B6
:1020D00023462A465C2103480096FEF77DFF002830
:1020E000EFD17CBD8C080020FFF73AB830B595B031
:1020F00028216846FEF751F814210AA8FEF74DF88A
:1021000018210FA8FEF749F801210804CDE90010B5
:102110000025029502240491CDE907404FF4E01018
:1021200009906846FFF75AFA08B172B6FEE70AA9A5
:102130000F2081E831004FF48060CDE90D050221C8
:102140000AA8FFF76FF908B172B6FEE74FF44040F6
:1021500011900F940FA8FFF7EFF8002801D072B686
:10216000FEE715B030BD7047FFF7C0BE70B504463E
:1021700000680169E26821F440511143016121695D
:10218000A0680843616908432168CA6841F20C638A
:102190009A430243CA6020684169A26921F44071F0
:1021A000114341611E492068884202D1FFF7E0F9DE
:1021B00001E0FFF7CDF900EBC00101EB0012606810
:1021C00064218000B2FBF0F3B3FBF1F36FF018066B
:1021D0007343B2FBF0F5B2FBF0F605EB8305322357
:1021E00003EB0515B5FBF1F5B6FBF1F605F0F005CF
:1021F00005EB0615B2FBF0F6B2FBF0F0B0FBF1F028
:102200006FF01802504306EB800003EB0010B0FBA8
:10221000F1F0216800F00F002844886070BD0000D4
:10222000003801402DE9F041984617460E46044615
:10223000069D27E0681C25D02DB1FEF701FEA0EB1E
:102240000800A8421ED920680C3050E8001F21F475
:10225000D07140E80012002AF5D12068143050E80F
:10226000001F21F0010140E80012002AF5D12020D2
:1022700084F8410084F84200002084F840000320E4
:10228000BDE8F0812068006836EA000004D0002034
:10229000B842CFD00020F3E70120F9E7FEE70000C5
:1022A0000FB4054B10B503A9044A029800F028F8B2
:1022B00010BC5DF814FB0000592700081400002032
:1022C0000907090E002804DB00F1E02080F8001463
:1022D000704700F00F0000F1E02080F8141D7047F7
:1022E00002E008C8121F08C1002AFAD170477047DF
:1022F000002001E001C1121F002AFBD1704700003D
:102300002DE9FF4F8DB00F460546002606E0252833
:102310000BD0DDE90F1290476D1C761C2878002841
:10232000F5D111B03046BDE8F08F0024A246A14699
:102330000122E94900E0044315F8013F203B02FA7D
:1023400003F00842F7D128782A2810D06FF02F0226
:102350002878A0F13001092914D80AEB8A0102EB90
:10236000410144F0020400EB010A6D1CF0E701CFCB
:102370005FEA000A03D544F40054CAF1000A44F0AD
:1023800002046D1C28782E2817D115F8010F44F08F
:1023900004042A280ED06FF02F022878A0F1300113
:1023A00009290AD809EB890102EB410100EB010977
:1023B0006D1CF2E757F8049B6D1C28786C280FD031
:1023C00006DC4C2817D068280DD06A2814D104E008
:1023D000742810D07A280FD10DE044F400140AE0DC
:1023E00044F4801401E044F440146978814202D13D
:1023F00004F580146D1C6D1C28786E281ED00CDC32
:10240000632830D004DC00288BD0582811D19FE0FD
:10241000642867D069280CD164E073282DD004DCCF
:102420006F2872D0702804D194E075286ED0782877
:102430006DD0DDE90F129047761C4BE1C4F30250DA
:10244000022806D0032809D0042801CF09D006604D
:1024500040E101CFF117C0E900613BE101CF068007
:1024600038E1067036E117F8040B8DF80000002003
:102470008DF80100EB46012003E057F804BB4FF054
:10248000FF3061074FF0000102D40DE008F10101B7
:10249000884649450FDA8045F8DB1BF8081000290B
:1024A000F4D108E008F1010188468142FADB1BF80B
:1024B00008100029F6D1DDE90F23AAEB08008146B8
:1024C000214600F031F9304400EB080604E0DDE974
:1024D0000F121BF8010B9047B8F10108F7D2214603
:1024E0004846F2E00A21C4F302524FF0000B089173
:1024F000022A04D001CFC117032A09D00AE0FF1D28
:1025000027F00707F7E8020108E02CE01EE01FE0D3
:1025100000B2C117042A01D140B2C117021E71F1E5
:10252000000206DA0023D0EB030063EB01012D2249
:1025300002E0220504D52B228DF82420012203E09D
:10254000E20701D02022F7E7904653E00A210BE092
:10255000102109E010214FF0000B44F004044FF06B
:102560000809089103E008214FF0000B0891C4F31B
:102570000252022A04D001CF0021032A06D006E02D
:10258000FF1D27F00707F7E8020103E080B2042AE5
:1025900000D1C0B24FF0000822072BD52A78702A4C
:1025A00007D0DDF820C08CF0100C5CEA0B0C05D0D5
:1025B0000EE040228DF82420012208E050EA0103B9
:1025C00006D030238DF824308DF825200222904645
:1025D000089B83F0080353EA0B030BD150EA010276
:1025E00001D1620706D530228DF824204FF0010872
:1025F000A9F101092A78582A04D038A20B9208AA16
:102600000A920BE03AA2F9E75B46089AFDF7D0FD83
:102610000B9B9B5C0A9A521E0A92137050EA0102AD
:10262000F2D10A98ADEB000000F1200B600702D553
:1026300024F4803401E04FF00109D94502DDA9EB13
:102640000B0000E0002000EB0B0141440890AAEBD6
:10265000010AE00306D4DDE90F232146504600F0CD
:1026600063F806444FF0000908E009A911F80900D1
:10267000DDE90F12904709F10109761CC145F4DB31
:10268000E0030CD5DDE90F232146504600F04CF85D
:10269000064404E0DDE90F1230209047761C0899CB
:1026A000481E08900029F5DC08E00A980A9900788D
:1026B000491C0A91DDE90F129047761CBBF100011D
:1026C000ABF1010BF1DC21465046DDE90F2300F0B0
:1026D00019F806446D1C21E6092801003031323317
:1026E000343536373839616263646566000000004E
:1026F0003031323334353637383941424344454638
:10270000000000002DE9F041044600251E46174652
:10271000880404D405E039462020B0476D1C641EAF
:10272000F9D52846BDE8F0812DE9F04104460025A1
:102730001E469046C80301D5302700E020278804B4
:1027400004D505E041463846B0476D1C641EF9D5F6
:102750002846BDE8F081000013B54FF6FF73012253
:1027600069460248FFF766F900981CBDE0080020A2
:1027700008B5FEF7FDFCFFF7B9FCFFF759FBFFF7C3
:1027800041FBFFF709FBFFF7B1FBFFF7CFFBFFF7BB
:10279000E9FBFFF7E9FC0020FFF710FC0020FFF742
:1027A00029FC4FF4FA734FF4AF72C8213220FDF7C1
:1027B00015FE4FF4FC60FFF71DFCDFF8ACB0DFF84E
:1027C000AC904FF4806A2A48FDF746FD52462949ED
:1027D0002748FDF7F9FF0A20FEF716FA02215846AE
:1027E000FEF720FB24A0FFF75BFDDFF888800027C1
:1027F00040F6FF74B8F8005099F802302E4699F868
:10280000032099F8011021A0FFF74AFD002043465C
:102810004FEA0A0C33F81010B14200DD0E4603EB0C
:1028200040025288BA4200DD1746A94200DA0D463E
:10283000A24200DA1446801CA7EB04086045E9DBDD
:1028400001215846FEF7EEFA08484146C01C431ED7
:10285000821E00904C4699F80000FFF7E7FB607875
:10286000FFF726FCAFE70000000C0140000000204D
:102870001808002018000020414443206973207389
:10288000746F70706564210D0A000000526573203A
:102890003D202532782C205265735F4C6F77203DA8
:1028A000202532782C205265735F48696768203D87
:1028B000202532780D0A00000102020304050607F4
:1028C00008090A0B0C0D0E0F10100102020304057B
:1028D000060708090A0B0C0D0E0F1010000000006F
:1028E00000000000010203040607080900000000C0
:1028F0000102030414290008000000201800000051
:10290000E02200082C2900081800002058190000B7
:10291000F0220008011A7F000100000010000000F2
:0C292000000000000024F4000000000093
:0400000508000131BD
:00000001FF
