:020000040800F2
:100000007019002049010008F719000813180008AA
:10001000F519000825030008391C0008000000003D
:10002000000000000000000000000000FB190008B4
:100030005F03000800000000F9190008851A000895
:100040006301000863010008630100086301000800
:1000500063010008630100086301000863010008F0
:100060006301000863010008630100082903000818
:1000700063010008630100086301000863010008D0
:1000800063010008630100086301000863010008C0
:1000900063010008630100086301000863010008B0
:1000A00063010008630100086301000863010008A0
:1000B0006301000863010008630100086301000890
:1000C0006301000863010008630100086301000880
:1000D0006301000863010008630100086301000870
:1000E0006301000863010008630100086301000860
:1000F0006301000863010008630100086301000850
:10010000630100086301000863010008630100083F
:10011000630100086301000863010008630100082F
:10012000630100086301000863010008630100081F
:10013000DFF810D000F042F800480047F91F00082F
:10014000AFF300807019002006488047064800473A
:10015000FEE7FEE7FEE7FEE7FEE7FEE7FEE7FEE777
:10016000FEE7FEE7031B000831010008D2B201E000
:1001700000F8012B491EFBD270470022F6E710B5AC
:1001800013460A4604461946FFF7F0FF204610BD05
:1001900030B50B46014600202022012409E021FA57
:1001A00002F59D4205D303FA02F5491B04FA02F554
:1001B0002844151EA2F10102F1DC30BD064C074DAA
:1001C00006E0E06840F0010394E807009847103427
:1001D000AC42F6D3FFF7B0FF3021000850210008F1
:1001E00070B5044600688168C943C90717D18168A2
:1001F00021F00101816000F0B9FD05460AE000BF71
:1002000000F0B4FD401B022804D920688068C04378
:10021000C00706D020688068C043C007F0D0002027
:1002200070BDA06A40F01000A062E06A40F00100DA
:10023000E062012070BD10B50146406A826A12F08A
:10024000500F05D0006A026BBDE810400846104709
:10025000816A41F40071816201688968C1F3424199
:1002600007290CD1017B51B9816A21F48071816227
:10027000816AC90403D4816A41F00101816200F0FE
:1002800021F910BD10B5406A816A41F040018162D8
:10029000C16A41F00401C16200F016F910BD10B549
:1002A000406A00F010F910BDF8B50026044600962B
:1002B00000688168C943C9072DD0816841F00101F8
:1002C0008160164816490068B0FBF1F000E0401E5E
:1002D00000900028FBD100F049FD054616E000BF64
:1002E00000F044FD401B022810D920688068C043FC
:1002F000C0070BD0A06A40F01000A062E06A40F096
:100300000100E06284F824600120F8BD2068806864
:10031000C043C007E4D10020F8BD00001000002059
:1003200040420F00FEE70000014800F07BBA0000E9
:100330004808002030B590F840500124AC40C56B0F
:100340006C60046863604368102B036803D0996095
:100350000068C26030BD9A600068C16030BD7047FF
:1003600072B6FEE72DE9F04107461C4615460E46DB
:10037000EE2001F043FB552001F040FB380A01F06C
:100380003DFBF8B201F03AFB300A01F037FBF0B266
:1003900001F034FB280A01F031FBE8B201F02EFB3A
:1003A000200A01F02BFBE0B201F028FBFF2001F056
:1003B00025FBFC2001F022FBFF2001F01FFBBDE824
:1003C000F041FF2001F01ABBF8B50024009490F82A
:1003D00024202546012A12D0012280F824204A68D0
:1003E0001F23072A0DD20668776B521E02EB82028A
:1003F00093409F430B6893401F43776319E00220AB
:10040000F8BD06680D2A0AD2376BD21F02EB8202B2
:1004100093409F430B6893401F43376309E0F76A9B
:100420000D3A02EB820293409F430B6893401F43B7
:10043000F7620A68072306680A2A0AD3F7680A3AA5
:1004400002EB420293409F438B6893401F43F76047
:1004500008E0376902EB420293409F438B68934068
:100460001F4337610A68102A01D0112A20D1124B8C
:1004700002689A4217D193681B0219D4936843F417
:10048000000393600968102912D10C490C4A0968CD
:10049000B1FBF2F101EB8101490000E0491E00913E
:1004A0000029FBD104E0816A41F02001816201242E
:1004B00080F824502046F8BD0024014010000020A0
:1004C00040420F0070477047704700002DE9F0412F
:1004D00004004FF000057FD0A06A002628B9E6622C
:1004E00084F82460204600F081F82046FFF778FE6B
:1004F000A16AC90600D420B1A06A40F01000A06231
:100500006AE0A16A21F4885141F00201A1623349F5
:1005100023688B42E16904D1B1F5402F01D14FF43A
:100520000021277B4FF4807C41EA470261680A433F
:10053000A168614508D0012906D0002194F814E093
:10054000BEF1010F02D00AE06146F7E7C7B1A76A22
:1005500047F02007A762E76A47F00107E7625F6894
:1005600027F469470F435F60236899681C4F39403F
:1005700011439960A16861450BD0012909D00CE0B5
:10058000DFF860E0A7690EEB47370F4347F40061DF
:10059000E5E7218A0D05A5F580152168CB6A23F4CE
:1005A00070032B43CB62216889680F4B194091423D
:1005B00008D1E662A16A21F0020141F00101A162C5
:1005C000BDE8F081A06A20F0020040F01000A062B7
:1005D000E06A40F00100E0620120F1E7003C0140E8
:1005E000FDF7E1FF00E0FFFFFE0E1FFF70B586B0D4
:1005F00000260546009601960296039600681A4961
:1006000088422ED11949886940F400708861886950
:1006100000F400700490886940F0100088618869D7
:10062000694600F0100004900320009001901048EB
:1006300000F092FA104C0F48C4E900068020C4E98B
:10064000026040002061800060612020A061000203
:10065000E061204600F00AFA08B1FFF781FE2C6243
:10066000656206B070BD0000002401400010024029
:100670000010014008000240480800202DE9F04722
:10068000894604463B4900683B4F0E1D9046884210
:1006900001D0B84207D1306810F4702F03D0012583
:1006A0002846BDE8F08794F8240001280CD00120EA
:1006B00084F824002046FFF7F7FD05004FF0000006
:1006C00004D084F82400EBE70220EAE7A16A40F6B0
:1006D0000162914341F48071A1622168B94218D14D
:1006E000326812F4702F14D0A16A41F48011A16213
:1006F0003168490505D5A16A21F4005141F48051C2
:10070000A162A16AC9040AD5E16A21F00601E16289
:1007100006E0A26A22F48012A2624968E9E7E06278
:1007200084F82400216A15488862216A1448C86246
:10073000216A1448086321686FF00200086020688D
:10074000816841F480718160216843464A464C319A
:10075000206A00F0C9F920688168C1F34241072985
:10076000816803D041F48011816099E741F4A001D0
:10077000FAE7000000240140002801403702000889
:100780009F0200088502000810B5044690F8240076
:10079000012807D0012084F824002046FFF720FD1F
:1007A00010B113E0022010BD21688A6822F4807223
:1007B0008A60216A91F82120022A07D1084600F0B8
:1007C0000EF8A16A30B141F04001A162002184F825
:1007D000241010BD21F4885141F00101F5E710B556
:1007E00090F821100022022905D00421816380F8AD
:1007F0002020012010BD01680B6823F00E030B6060
:1008000001680B6823F001030B6090F84030C46B63
:10081000012101FA03F3636080F8211080F82020A1
:10082000104610BD2DE9F05FC16B0A6801680B68C6
:10083000046C4FF0040808FA04F8844D844E854F88
:10084000DFF814C2DFF81492DFF814A2DFF814B254
:10085000DFF814E218EA020F65D05FEA437862D548
:100860000A68920603D40A6822F004020A60DFF8DC
:10087000F0814FF48062016808F11408130114023A
:10088000414524D9A9420DD0B1420FD0B9421AD066
:10089000614515D0494515D0514501D1120312E0EB
:1008A000594501D104220EE0714501D140220AE0F0
:1008B0006D4D1435A94206D06B4A2832914201D1C0
:1008C0001A4600E022466749091F0A6029E0A9424A
:1008D00013D0B14215D0B94220D061451BD0494553
:1008E0001BD0514502D14FF4800217E0414502D19F
:1008F0004FF0806212E0594501D104220EE07145AB
:1009000001D140220AE0584D1435A94206D0564A7A
:100910002832914201D11A4600E022464B4908395B
:100920004A60C16A71E04FF0020808FA04F818EA58
:10093000020F70D05FEA83786DD50A68920606D4FC
:100940000A6822F00A020A60012180F82110DFF80B
:1009500010814FF40072016808F1140813011402A9
:10096000414524D9A9420DD0B1420FD0B9421AD085
:10097000614515D0494515D0514501D1120312E00A
:10098000594501D102220EE0714501D120220AE031
:10099000354D1435A94206D0334A2832914201D14F
:1009A0001A4600E022462F49091F0A6029E0A942A1
:1009B00013D0B14215D0B94220D061451BD0494572
:1009C0001BD0514502D14FF4001217E0414502D12E
:1009D0004FF0007212E0594501D102220EE071453C
:1009E00001D120220AE0204D1435A94206D01E4A2A
:1009F0002832914201D11A4600E0224613490839B3
:100A00004A60002180F82010816A00291CD0BDE8CE
:100A1000F05F0847FFE70825A540154214D01A07E4
:100A200012D50A6822F00E020A6090F84020C36BCB
:100A3000012101FA02F25A60816380F8211000213D
:100A400080F82010016BE0E7BDE8F09F080002404D
:100A50001C000240300002404400024058000240A6
:100A60006C000240080402401C04024030B560B132
:100A70001A4B026814219A4209D2194B1344B3FB52
:100A8000F1F18900016417490AE0012030BD134BE0
:100A90005B421344B3FBF1F1890001640F4908394B
:100AA000C163022180F82110136843F6F0718B4373
:100AB000F0E901142143D0E902452C4321430469A4
:100AC0002143446921438469214319431160002172
:100AD0004163012242770177084630BD0804024095
:100AE000F8FFFDBF0000024070B5044690F82000FA
:100AF000002501280CD0012084F8200094F8216002
:100B00000020012E06D084F820000225284670BD62
:100B1000022070BD022684F82160A0632068066868
:100B200026F0010606602046FFF704FCE06A002874
:100B30002068016802D041F00E0106E021F00401B6
:100B400001602068016841F00A01016020680168C5
:100B500041F001010160D9E72DE9F84FDFF8C891B4
:100B60000024A9F1040B23460F2709F1040AABF175
:100B7000040ED1E00125A54006EA0502AA4276D17D
:100B8000DFF8A8C14E68A6EB0C0866452BD00DDC3B
:100B9000032E34D005DC36B3012E19D0022E2FD10E
:100BA0001BE0112E16D0122E2AD119E0B8F5881F9D
:100BB00019D006DCB8F5803F15D0B8F5801F1FD1DD
:100BC00011E0B8F5001F0ED0B8F5041F18D10AE0E7
:100BD000CB6815E0CB681B1D12E0CB6808330FE033
:100BE000CB680C330CE08B682BB1012B4FF0080362
:100BF00003D0456104E0042302E0056100E0002326
:100C0000FF2A01D8064601E000F104064FEA8405F8
:100C100001D9A5F12005D6F8008007FA05FC28EADD
:100C20000C0803FA05F548EA0508C6F800804D6887
:100C3000ED0070D53E4DAE6946F00106AE61AD697E
:100C400024F0030605F0010500953A4D06EB050C6E
:100C5000DCF80850A607360F07FA06F825EA08055B
:100C6000DFF8D480404503D14FF0000825E052E082
:100C7000DFF8C880404502D14FF001081DE0DFF8E1
:100C8000C080404502D14FF0020816E0DFF8B48082
:100C9000404502D14FF003080FE0DFF8AC8040453B
:100CA00002D14FF0040808E0DFF8A080404502D1EF
:100CB0004FF0050801E04FF0060808FA06F848EA88
:100CC0000508CCF808804D68D9F80060ED024D4663
:100CD00001D5164300E096432E604D68DAF80060B7
:100CE000AD02554601D5164300E096432E604D688F
:100CF000DBF80060AD035D4601D5164300E0964386
:100D00002E604D68DEF80060ED03754601D5164390
:100D100000E096432E60641C0A681646E2407FF4A9
:100D200029AFBDE8F88F0000080401400000111051
:100D3000001002400000014000080140000C01408A
:100D4000001001400014014000180140001C014047
:100D5000C26821EA02030A4043EA02410161704786
:100D60000AB1016170470904FBE70000014880688F
:100D7000704700000400002070B5040025D094F8EE
:100D80003D00002520B984F83C50204600F0B8F81A
:100D9000242084F83D002068016821F001010160F1
:100DA0002068016841F4004101602068016821F475
:100DB0000041016000F06EFA4D4A6168914201D82D
:100DC0004C4900E04C49884201D2012070BD4B499A
:100DD0002368B0FBF1F15E6826F03F060E435E60CB
:100DE0006368934206D94FF4967359434FF47A736C
:100DF000B1FBF3F12368491C1E6A26F03F0631431C
:100E000019626168914210D84900401EB0FBF1F2AE
:100E1000521CC2F30B02042A01D2042022E0B0FBD0
:100E2000F1F0401CC0F30B001CE0A268F2B301EB30
:100E3000C10303EB0116431EB3FBF6F35B1C43F443
:100E400080431B0549D092B301EBC10202EB0111B3
:100E5000401EB0FBF1F0401CC0F30B0040F480409A
:100E600040F400402168CA694CF6FF739A4310436E
:100E7000C861D4E9071001432068026822F0C0026B
:100E800011430160D4E9030101432068826848F2FC
:100E9000FF339A4311438160D4E905010843216877
:100EA000CA6822F0FF021043C86001E00EE016E0BD
:100EB0002068016841F0010101602564202084F868
:100EC0003D00256384F83E50002070BD01EB4106D3
:100ED000431EB3FBF6F35B1CB3E70120C2E701EB53
:100EE0004101401EB0FBF1F0401CC0F30B00B7E71E
:100EF000A086010080841E0000093D0040420F00D2
:100F000010B586B000210091019102910391006813
:100F10000F4988421AD10F4CA06940F00800A06127
:100F2000A069694600F008000490C02000901220DB
:100F30000190032003900848FFF70EFEE06940F49B
:100F40000010E061E06900F40010049006B010BDEC
:100F50000054004000100240000C0140024881682B
:100F6000027811448160704704000020074810B5E2
:100F7000016841F010010160032000F06DF80F20BE
:100F800000F006F800F024F8002010BD0020024018
:100F900070B50D4D04464FF47A712878B1FBF0F02E
:100FA0000A490968B1FBF0F000F04AFB48B9102C7F
:100FB00007D200222146501E00F02EF800206C605F
:100FC00070BD012070BD0000040000201000002052
:100FD000094808B5816941F001018161816901F029
:100FE00001010091C16941F08051C161C06900F007
:100FF0008050009008BD000000100240002809DB6E
:1010000000F01F02012191404009800000F1E02022
:10101000C0F8001170470000F0B40E4B1B680C467E
:10102000C3F30223C3F10705042D00D90425191DBC
:10103000072901D2002300E0DB1E012606FA05F194
:10104000491E214099409E40761E16403143F0BC17
:1010500000F004BE0CED00E0064900F0070208684D
:101060004FF6FF03184040EA0220034A104308608D
:10107000704700000CED00E00000FA052DE9F84390
:1010800005460078354CC00754D0E0690026C00002
:1010900008D4E06940F08050E061E069012600F08A
:1010A000805000902E480168C90512D4016880461E
:1010B00041F480710160FFF759FE074605E000BF6B
:1010C000FFF754FEC01B642823D8D8F80000C005E1
:1010D000F6D5206A10F4407021D0A98801F440713F
:1010E00081421CD0206A1F49012220F440700A600E
:1010F00000220A602062C00711D0FFF737FE0746C2
:1011000041F2883808E000BFFFF730FEC11B4145BF
:1011100002D90320BDE8F883206A8007F4D5206A4D
:10112000696820F44070084320621EB1E06920F035
:101130008050E0612878800705D56068A96820F4B0
:101140004040084360602878C00605D5606869693A
:1011500020F48000084360600020DBE700100240BC
:1011600000700040400442422DE9F0470F46050060
:1011700061D0434E306800F00700B84209D23068B1
:1011800020F0070038433060306800F00700B842B4
:1011900051D128683B4C810712D5400703D56068C0
:1011A00040F4E06060602878000703D5606840F490
:1011B000605060606068A96820F0F00008436060DB
:1011C0002878C00728D06868012810D02168022834
:1011D00010D0890700292EDA616821F0030101434C
:1011E0006160FFF7C3FD804641F288390DE0216858
:1011F0008903EFE78901EDE7FFF7B8FDA0EB0801F0
:10120000494502D90320BDE8F0876068696800F0AD
:101210000C00B0EB810FEFD1306800F00700B8424E
:101220000BD9306820F0070038433060306800F098
:101230000700B84201D00120E5E72878400705D52E
:101240006068E96820F4E06008436060287800077F
:1012500006D56068296920F4605040EAC1006060EA
:1012600000F038F86168084AC1F30311515CC840C6
:101270000649086006480068FFF78AFE0020C2E7BA
:10128000002002400010024016210008100000203B
:10129000080000200448054900684968044AC1F371
:1012A0000221515CC840704710000020001002402D
:1012B000262100080448054900684968044AC1F32A
:1012C000C221515CC840704710000020001002404D
:1012D000262100080E4A51680E4801F00C03042B29
:1012E00011D0082B0FD10C48C1F38343C903C05C54
:1012F0000AD55168084AC1F34041921E515C054A23
:101300005043B0FBF1F07047044948437047000078
:101310000010024000127A000621000800093D007A
:101320002DE9F84F040070D02078C04DC00749D097
:101330006868C0F38100012807D06868C0F38100A5
:10134000022809D16868C00306D52868800339D50A
:1013500060680028E7D035E06068B0F5803F0BD0CA
:1013600010B1B0F5A02F11D0286820F4803028608B
:10137000286820F4802002E0286840F4803028604B
:10138000606890B1FFF7F2FC06460AE0286840F476
:1013900080202860F0E700BFFFF7E8FC801B64288E
:1013A00073D828688003F7D50CE0FFF7DFFC06460A
:1013B00005E000BFFFF7DAFC801B6428F0D828683E
:1013C0008003F7D420789A4E80074FF001094FF040
:1013D000000839D5686810F00C0F07D06868C0F3B2
:1013E0008100022809D16868C00306D428688007F4
:1013F00014D52069012808D110E02069B0B1C6F8E1
:101400000090FFF7B3FC074605E00AE1FFF7AEFCEA
:10141000C01B0228C4D828688007F7D528686169EE
:1014200020F0F80040EAC10028600DE0C6F8008016
:10143000FFF79CFC074604E0FFF798FCC01B02285E
:1014400023D828688007F7D4207800072CD579485E
:10145000A169D9B1C0F80090FFF788FC074604E005
:10146000FFF784FCC01B02280FD8686A8007F7D5F5
:1014700071484FF4FA510068B0FBF1F0009000BFE2
:101480000098411E0091FAD20EE080E0C0F8008082
:10149000FFF76CFC074604E0FFF768FCC01B02285E
:1014A00075D8686A8007F7D42078400760D5E86966
:1014B0000027C00008D4E86940F08050E861E8697E
:1014C000012700F0805000905C480168C90513D4E2
:1014D0000168834641F480710160FFF747FC824652
:1014E00006E000BFFFF742FCA0EB0A0064284ED8DC
:1014F000DBF80000C005F5D5E06801280AD008B186
:10150000052813D0286A20F001002862286A20F0FC
:10151000040002E0286A40F001002862E06841F21D
:10152000883B98B1FFF722FC82460BE0286A40F026
:1015300004002862EEE700BFFFF718FCA0EB0A01E9
:1015400059455AD8286A8007F6D50CE0FFF70EFCFB
:10155000824605E0FFF70AFCA0EB0A0159454CD88A
:10156000286A8007F6D41FB1E86920F08050E8614E
:10157000E06988B36968C1F38101022944D0022877
:10158000C6F8608004D0FFF7F1FB044638E034E091
:10159000FFF7ECFB074604E0FFF7E8FBC01B02285F
:1015A0002BD828688001F7D4206AB0F5803F05D198
:1015B0006868A16820F4003008436860D4E9080135
:1015C0000843696821F4741108436860C6F86090A4
:1015D000FFF7CCFB044606E025E000BFFFF7C6FBA3
:1015E000001B022809D828688001F7D51BE000BF3E
:1015F000FFF7BCFB001B022802D90320BDE8F88FCF
:1016000028688001F4D40EE00128F7D06868226AC7
:1016100000F48031914204D1616A00F47010884274
:1016200001D00120EAE70020E8E7000000100240B6
:10163000000042428004424210000020007000403E
:1016400010B5401EB0F1807F01D3012010BD4FF0D6
:10165000E02460610F21601700F000FB0020A06112
:1016600007202061002010BD70B5040004D094F85C
:101670004100002510B106E0012070BD84F8405003
:10168000204600F023F8242084F841002068C16837
:1016900021F40051C160204600F036FA206801694B
:1016A00021F4904101612068416921F02A014161E2
:1016B0002068C16841F40051C1606564202084F84D
:1016C000410084F842006563002070BD70B586B0AB
:1016D00000240094019402940394234E0368234948
:1016E00002200322224DB34219D18B6943F4804377
:1016F0008B618B6903F4804304938B6943F004038B
:101700008B618969039201F0040104910102CDE922
:10171000001069462846FFF71FFA28151BE0154EF2
:10172000B3421FD1CB6943F40033CB61CB6903F4DF
:10173000003304938B6943F004038B61896903923E
:1017400001F0040104910421CDE900106946284606
:10175000FFF702FA0820CDE9000469462846029402
:10176000FFF7FAF906B070BD0038014000100240E2
:1017700000080140004400402DE9F843044690F879
:1017800041001F4616460D46202802D00220BDE823
:10179000F8837DB176B100206064212084F8410097
:1017A000FFF7E4FAA6848046E684A068B0F5805F7F
:1017B00002D003E00120EAE7206910B12E4600259F
:1017C0000EE000260CE08021204600F0F9F9A0B9D7
:1017D000AEB116F8010B21684860E08C401EE08431
:1017E000E08C43464FF0000200970028EBD14FF009
:1017F0004001204600F0E4F930B10320C7E735F896
:10180000020BC0F30800E6E7202084F84100002026
:10181000BDE7FEE7FEB50024174800940194154982
:101820000294016089158160012505730475022603
:1018300006614FF460214460C161FEF747FE08B1C4
:10184000FEF78EFD0A20CDE90005694602940A489C
:10185000FEF7BAFD08B1FEF783FD0B20CDE90006C7
:1018600069460548FEF7B0FD002801D0FEF778FD77
:10187000FEBD00000024014018080020094808B5FA
:10188000416941F0010141614069002200F001001D
:10189000009011460B20FFF7BFFBBDE808400B206E
:1018A000FFF7ACBB001002402DE9F04385B00024E7
:1018B00021480094019402940394816941F010013D
:1018C0008161816901F010010491816941F0040195
:1018D0008161816901F004010491816941F008018D
:1018E00081618069DFF8548000F0080004900022D4
:1018F00003214046FFF734FADFF844904FF4706755
:10190000002239464846FFF72BFA0320012502261C
:10191000CDE90005CDE9024669464046FFF71CF9CE
:1019200000970396CDE9015469464846FFF714F93C
:1019300005B0BDE8F083000000100240000C01403B
:10194000001001400D4810B50B4901600C49416081
:1019500000214FF480428160C0E90312416181613E
:10196000C1610162FFF708FA002803D0BDE810400A
:10197000FEF7F6BC10BD0000005400408C080020AB
:10198000A08601000C4810B50A4901604FF4E1310E
:101990004160002181600C22C160C0E904128161B4
:1019A000C161FFF761FE002803D0BDE81040FEF7DB
:1019B000D7BC10BD00380140E00800200C4810B52D
:1019C0000A4901604FF416514160002181600C22E8
:1019D000C160C0E904128161C161FFF745FE0028C2
:1019E00003D0BDE81040FEF7BBBC10BD0044004072
:1019F00028090020FEE7FEE77047704701B54FF465
:101A00007A73012269460248FFF7B6FE08BD00005E
:101A10002809002010B50446EE20FFF7EFFF422012
:101A2000FFF7ECFF200AFFF7E9FFE0B2FFF7E6FF60
:101A3000FF20FFF7E3FFFC20FFF7E0FFFF20FFF7A9
:101A4000DDFFBDE81040FF20FFF7D8BF10B504460A
:101A5000EE20FFF7D3FF4120FFF7D0FF200AFFF76A
:101A6000CDFFE0B2FFF7CAFFFF20FFF7C7FFFC2062
:101A7000FFF7C4FFFF20FFF7C1FFBDE81040FF20C4
:101A8000FFF7BCBFFFF76ABA30B595B028216846AA
:101A9000FEF773FB14210AA8FEF76FFB18210FA8AD
:101AA000FEF76BFB01210804CDE90010002502952B
:101AB00002240491CDE907404FF4E01009906846F4
:101AC000FFF72EFC08B172B6FEE70AA90F2081E8E5
:101AD00031004FF48060CDE90D0502210AA8FFF71F
:101AE00043FB08B172B6FEE74FF4404011900F94EB
:101AF0000FA8FFF7C3FA002801D072B6FEE715B0B1
:101B000030BD7047FFF71EBF70B50446006801691D
:101B1000E26821F44051114301612169A068084342
:101B2000616908432168CA6841F20C639A43024321
:101B3000CA6020684169A26921F440711143416182
:101B40001E492068884202D1FFF7B4FB01E0FFF78D
:101B5000A1FB00EBC00101EB001260686421800072
:101B6000B2FBF0F3B3FBF1F36FF018067343B2FB73
:101B7000F0F5B2FBF0F605EB8305322303EB051518
:101B8000B5FBF1F5B6FBF1F605F0F00505EB061532
:101B9000B2FBF0F6B2FBF0F0B0FBF1F06FF0180220
:101BA000504306EB800003EB0010B0FBF1F021681E
:101BB00000F00F002844886070BD0000003801402C
:101BC0002DE9F041984617460E460446069D27E04B
:101BD000681C25D02DB1FFF7C9F8A0EB0800A8427A
:101BE0001ED920680C3050E8001F21F4D07140E865
:101BF0000012002AF5D12068143050E8001F21F0AF
:101C0000010140E80012002AF5D1202084F84100AB
:101C100084F84200002084F840000320BDE8F081F1
:101C20002068006836EA000004D00020B842CFD017
:101C30000020F3E70120F9E7FEE700000FB4054BB1
:101C400010B503A9044A029800F028F810BC5DF80A
:101C500014FB0000E11F0008140000200907090E12
:101C6000002804DB00F1E02080F80014704700F049
:101C70000F0000F1E02080F8141D704702E008C852
:101C8000121F08C1002AFAD170477047002001E0F6
:101C900001C1121F002AFBD1704700002DE9FF4F40
:101CA0008BB088460546002606E025280BD0DDE9E6
:101CB0000D1290476D1C761C28780028F5D10FB0C6
:101CC0003046BDE8F08F0024A146A2460122AE496D
:101CD00000E0044315F8013F203B02FA03F00842FC
:101CE000F7D128782A2810D06FF02F022878A0F199
:101CF0003001092915D809EB890102EB410144F0B3
:101D0000020400EB01096D1CF0E758F8041B5FEAC0
:101D1000010903D544F40054C9F1000944F0020458
:101D20006D1C28782E2817D115F8010F44F00404F3
:101D30002A280ED06FF02F022878A0F1300109294F
:101D40000AD80AEB8A0102EB410100EB010A6D1C83
:101D5000F2E758F804AB6D1C28786C280FD006DC2D
:101D60004C2817D068280DD06A2814D104E07428B4
:101D700010D07A280FD10DE044F400140AE044F4A6
:101D8000801401E044F440146978814202D104F5E2
:101D900080146D1C6D1C2878692865D006DC00282D
:101DA0008DD0632827D0642806D15DE06E2808D046
:101DB00073282AD0752877D0DDE90D129047761C5C
:101DC000E0E0C4F30250022809D003280DD0D8F86F
:101DD000001004280DD00E6008F10408D2E0D8F8F5
:101DE0000010F217C1E90062F6E7D8F800100E8083
:101DF000F2E70E70F0E718F8041B8DF800100020D1
:101E00008DF80100EB46012003E058F804BB4FF0C9
:101E1000FF3061074FF0000701D40AE07F1C5745EF
:101E20000DDA8742FADB1BF807100029F6D106E02D
:101E30007F1C8742FCDB1BF807100029F8D1DDE985
:101E40000D23A9EB07008146214600F0B1F830448C
:101E5000C61904E0DDE90D121BF8010B90477F1E47
:101E6000F8D22146484688E058F8040BC4F30251E2
:101E70004FF00A0B032900D100B2042900D140B26F
:101E8000002802DA40422D2102E0210505D52B2150
:101E90008DF82410012104E006E0E10710D0202194
:101EA000F6E708AF089113E058F8040BC4F30251A9
:101EB0004FF00A0B032900D180B2042900D1C0B22F
:101EC0000021EEE75946FEF763F9303107F8011DAE
:101ED0000028F7D1ADEB070000F1200B600702D519
:101EE00024F4803401E04FF0010ADA4502DDAAEB68
:101EF0000B0000E00020824600EB0B010898014433
:101F0000A9EB01000A90E00306D4DDE90D23214688
:101F10000A9800F04DF806444FF0000908E009A9BE
:101F200011F80900DDE90D12904709F10109761C4D
:101F300008998945F3DBE0030CD5DDE90D23214643
:101F40000A9800F035F8064404E0DDE90D1230206F
:101F50009047761CBAF10001AAF1010AF5DC05E010
:101F6000DDE90D1217F8010B9047761CBBF100015B
:101F7000ABF1010BF4DC0A982146DDE90D2300F0FA
:101F800005F806446D1C97E6092801002DE9F0418B
:101F9000044600251E461746880404D405E0394649
:101FA0002020B0476D1C641EF9D52846BDE8F0819D
:101FB0002DE9F041044600251E469046C80301D590
:101FC000302700E02027880404D505E04146384644
:101FD000B0476D1C641EF9D52846BDE8F0810000AD
:101FE00013B54FF6FF73012269460248FFF7C4FBA1
:101FF00000981CBDE008002008B5FEF7B7FFFFF70A
:1020000043FDFFF751FCFFF739FCFFF703FCFFF737
:1020100099FCFFF7B7FCFFF7D1FCFFF773FD4FF416
:102020008066324622492348FEF728FB0020FFF74E
:10203000F1FC0020FFF70AFD4FF4FA734FF4AF7282
:10204000C8213220FEF78EF94FF4FC60FFF7FEFC4A
:10205000DFF86480194F164D324615491548FEF7D2
:102060000DFB02214046FEF773FE002035F81020DC
:10207000401C35F81010401CB042F7DB3A807980E4
:102080000C48FEF781FB0EA0FFF7D8FD5FF00004BF
:1020900005EB4400631C4088009035F8142021466D
:1020A0000CA0FFF7CBFDA41CB442F1DBD4E7000089
:1020B0001800002018080020000C0140000000203B
:1020C0004144432069732073746F70706564210DFF
:1020D0000A0D0A004144435F56616C75655B253407
:1020E000645D206973202534642C204144435F568D
:1020F000616C75655B2534645D20697320253464EB
:102100000D0A0000010202030405060708090A0B74
:102110000C0D0E0F10100000000000000000010266
:102120000304060708090000000001020304000080
:102130005021000800000020180000007C1C00084E
:102140006821000818000020581900008C1C0008A5
:10215000000000000100000010000000000000006E
:082160000024F400000000005F
:0400000508000131BD
:00000001FF
